:020000042000DA
:100000000000012099020020090300200B030020BA
:100010000D0300200F03002011030020000000004A
:10002000000000000000000000000000130300209A
:100030001503002000000000170300201903002012
:100040001B0300201D0300201F03002021030020AC
:10005000230300202503002027030020290300207C
:100060002B0300202D030020552400208124002094
:10007000330300203503002095320020390300208F
:100080003B030020C13200203F0300204103002039
:1000900043030020450300204703002049030020BC
:1000A0004B030020000000000000000000000000E2
:1000B0000000000000000000000000004D030020D0
:1000C000511100206D110020530300205503002022
:1000D00057030020590300205B0300205D0300202C
:1000E0005F030020610300206303002065030020FC
:1000F00067030020690300206B0300206D030020CC
:100100006F0300207103002073030020750300209B
:1001100077030020790300207B0300207D0300206B
:100120007F0300208103002083030020850300203B
:1001300087030020890300208B0300208D0300200B
:100140008F030020910300209303002095030020DB
:1001500097030020990300209B0300209D030020AB
:100160009F030020A1030020A3030020A50300207B
:10017000A7030020A9030020AB030020AD0300204B
:10018000AF030020B1030020B3030020B50300201B
:10019000B7030020B9030020BB030020BD030020EB
:1001A000BF030020C1030020C3030020C5030020BB
:1001B000C7030020C9030020CB030020CD0300208B
:1001C000CF030020D1030020D3030020D50300205B
:1001D000D7030020D9030020DB030020DD0300202B
:1001E000DF030020E1030020E3030020E5030020FB
:1001F000E7030020E9030020EB030020ED030020CB
:10020000EF030020F1030020F3030020F50300209A
:10021000F7030020F9030020FB030020FD0300206A
:10022000FF03002001040020030400200504002037
:1002300007040020090400200B0400200D04002006
:100240000F040020110400201304002015040020D6
:1002500017040020190400201B0400201D040020A6
:100260001F04002021040020230400202504002076
:1002700027040020290400202B0400202D04002046
:100280002F04002031040020330400203504002016
:100290003704002039040020684880476848002857
:1002A0000BD168486849694A884206D091421CBF10
:1002B00050F8043B41F8043BF8D165486549664A6B
:1002C000884206D091421CBF50F8043B41F8043BE1
:1002D000F8D162486249634A914218BF41F8040B61
:1002E000FAD1000000000000000000000000000043
:1002F000DFF874010FF2030E00474FF000004FF0DB
:100300000001DFF868F1FEE7FEE7FEE7FEE7FEE743
:10031000FEE7FEE7FEE7FEE7FEE7FEE7FEE7FEE7B5
:10032000FEE7FEE7FEE7FEE7FEE7FEE7FEE7FEE7A5
:10033000FEE7FEE7FEE7FEE7FEE7FEE7FEE7FEE795
:10034000FEE7FEE7FEE7FEE7FEE7FEE7FEE7FEE785
:10035000FEE7FEE7FEE7FEE7FEE7FEE7FEE7FEE775
:10036000FEE7FEE7FEE7FEE7FEE7FEE7FEE7FEE765
:10037000FEE7FEE7FEE7FEE7FEE7FEE7FEE7FEE755
:10038000FEE7FEE7FEE7FEE7FEE7FEE7FEE7FEE745
:10039000FEE7FEE7FEE7FEE7FEE7FEE7FEE7FEE735
:1003A000FEE7FEE7FEE7FEE7FEE7FEE7FEE7FEE725
:1003B000FEE7FEE7FEE7FEE7FEE7FEE7FEE7FEE715
:1003C000FEE7FEE7FEE7FEE7FEE7FEE7FEE7FEE705
:1003D000FEE7FEE7FEE7FEE7FEE7FEE7FEE7FEE7F5
:1003E000FEE7FEE7FEE7FEE7FEE7FEE7FEE7FEE7E5
:1003F000FEE7FEE7FEE7FEE7FEE7FEE7FEE7FEE7D5
:10040000FEE7FEE7FEE7FEE7FEE7FEE7FEE7FEE7C4
:10041000FEE7FEE7FEE7FEE7FEE7FEE7FEE7FEE7B4
:10042000FEE7FEE7FEE7FEE7FEE7FEE7FEE7FEE7A4
:10043000FEE7FEE7FEE7FEE7FEE70000F5340020FA
:10044000000000000000002000000020C0AE0020DE
:10045000C0AE0020C0AE0020ECB3002000000000C1
:10046000F0B30020C8B6002021460020791B0020F0
:100470004BF2F033C2F200031A780AB90120187067
:10048000704700BF4AF6C060C2F2000008B50368BA
:100490002BB140F20003C0F2000303B1984708BD3E
:1004A00080B483B000AF0346FB804EF20013CEF25F
:1004B0000003B7F906204FEA5212F98801F01F0134
:1004C0004FF0010000FA01F143F8221007F10C0788
:1004D000BD4680BC704700BF80B483B000AF034608
:1004E000FB804EF20013CEF20003B7F906204FEA6C
:1004F0005212F98801F01F014FF0010000FA01F1DA
:1005000002F1200243F8221007F10C07BD4680BC1F
:10051000704700BF80B586B002AF786039607B68F5
:100520001A783B681B783A737B7307F10C034FF022
:10053000000200924BF24C60C2F200004FF06901E1
:100540001A464FF0020302F0BFF84BF24C60C2F2C1
:1005500000004FF0640102F0CBF907F11007BD462F
:1005600080BD00BF80B586B004AF786039603B685D
:1005700000934FF0800301934FF0000302934BF27E
:100580004C60C2F200004FF069017A684FF001033D
:1005900002F014F94BF24C60C2F200004FF064011B
:1005A00002F0A6F907F10807BD4680BD80B582B00C
:1005B00000AF4FF001033B714FF03F033B7007F179
:1005C00004023B4610461946FFF7A4FF07F108074F
:1005D000BD4680BD80B582B000AF4FF000033B71D7
:1005E0004FF000033B7007F104023B4610461946EA
:1005F000FFF790FF07F10807BD4680BD80B500AF4B
:10060000FFF7D4FFFFF7E6FF80BD00BF80B584B0E1
:1006100000AF02460B46FA71BB71FB794FEA032229
:10062000BB7942EA0303FB60FB7903F00803002B6C
:1006300005D0FB686FEA03536FEA1353FB60F86859
:1006400003F0CEFD03461846044903F01DFE0346A1
:10065000184607F11007BD4680BD00BF0000803E70
:10066000B0B586B000AF786039604FF00003FB6032
:100670004FF000033B614FF007037B614FF0000335
:10068000FB602EE0FB68002B0BD0FB6803F00F0330
:10069000002B06D17B6903F1FF337B614FF0000330
:1006A0003B613B694FEA43123B6802EB03047D69FF
:1006B000FB6803F101027B6813441A78F9687B68D0
:1006C0000B441B7810461946FFF7A0FF034644F879
:1006D00025303B6903F101033B61FB6803F1020331
:1006E000FB60FB687F2BCDDD07F11807BD46B0BD71
:1006F00090B587B000AF78601F4BFB604FF00003F0
:100700003B612FE04FF000037B6124E03B694FEA3F
:1007100043127B6813447A6953F822304FF0000289
:1007200014461846F96803F06BFF0346002B02D00D
:100730004FF001031C46E3B2002B08D03B694FEA9F
:1007400043127B6813447A6953F82230FB607B695B
:1007500003F101037B617B69072BD7DD3B6903F163
:1007600001033B613B69072BCCDDFB68184607F1B1
:100770001C07BD4690BD00BF0000000080B485B0DE
:1007800000AF78604FF00003FB600BE0FB684FEABE
:1007900083027B6813444FF000021A60FB6803F188
:1007A0000103FB60FB68172BF0DD07F11407BD4662
:1007B00080BC704780B584B000AF7860786803F083
:1007C0000BFD03461846074903F012FE0346FB6083
:1007D000F868054903F00CFE0346184607F11007B8
:1007E000BD4680BD0000C84200006042000000001D
:1007F00090B583B000AFC7E900010AE0D7E9000176
:1008000021A3D3E9002302F09DFF02460B46C7E96E
:1008100000234FF000031C46D7E900014FF000020F
:100820004FF0000303F0B2FB0346002B02D04FF061
:1008300001031C46E3B2002BE0D10AE0D7E9000136
:1008400011A3D3E9002302F07BFF02460B46C7E960
:1008500000234FF000031C46D7E900010AA3D3E9A7
:10086000002303F0A7FB0346002B02D04FF0010347
:100870001C46E3B2002BE1D1D7E90023104619460C
:1008800007F10C07BD4690BD0000000000807640D7
:1008900090B583B000AFC7E900010AE0D7E90001D5
:1008A00021A3D3E9002302F04DFF02460B46C7E91E
:1008B00000234FF000031C46D7E900011CA3D3E935
:1008C000002303F063FB0346002B02D04FF001032B
:1008D0001C46E3B2002BE1D10AE0D7E9000112A3E4
:1008E000D3E9002302F02CFF02460B46C7E90023A0
:1008F0004FF000031C46D7E900010FA3D3E9002302
:1009000003F058FB0346002B02D04FF001031C46B6
:10091000E3B2002BE1D1D7E900231046194607F1D5
:100920000C07BD4690BD00BF00000000008076406F
:1009300000000000008066C00000000000806640EB
:1009400080B58AB004AF02460B46FA71BB714BF218
:100950004C60C2F200004FF000014FF0000201F0C5
:10096000FDFD4FF000033B74FA7907F1100307F126
:100970000F0100914FF0010101914FF00001029130
:100980004BF24C60C2F2000011461A464FF00103D0
:1009900001F014FF4BF24C60C2F200004FF0000176
:1009A00001F0A6FFFB7BA02B02D04FF0FF331EE02F
:1009B0004FF03D033B73BB797B73FA7907F10C036E
:1009C0004FF0000100914BF24C60C2F20000114662
:1009D0001A464FF0020301F077FE4BF24C60C2F270
:1009E00000004FF0000101F083FF4FF000031846B4
:1009F00007F11807BD4680BD80B586B002AF03463B
:100A0000FB714FF03D033B724FF000037B72FA79AC
:100A100007F108034FF0000100914BF24C60C2F265
:100A2000000011461A464FF0020301F04DFE4BF252
:100A30004C60C2F200004FF0000101F059FF07F1D5
:100A40001007BD4680BD00BF80B586B002AFF8710B
:100A5000B9717A713B71BB794FEA0313DAB27B79D2
:100A60004FEA8303DBB21344DAB23B791344BB731E
:100A70004FF041033B73BB7B7B73FA7907F10C03A7
:100A80004FF0000100914BF24C60C2F200001146A1
:100A90001A464FF0020301F017FE4BF24C60C2F20F
:100AA00000004FF0000101F023FF3B7E4FEA83037B
:100AB000DAB23B7F4FEA4303DBB21344DAB297F872
:100AC00020301344FB734FF042033B72FB7B7B727D
:100AD000FA7907F108034FF0000100914BF24C60E6
:100AE000C2F2000011461A464FF0020301F0ECFD7D
:100AF0004BF24C60C2F200004FF0000101F0F8FE32
:100B000007F11007BD4680BD80B588B004AF03462D
:100B1000FB714FF00003FB604AF62033C2F2000382
:100B20001B883B8107F10C01FA7907F1080300915A
:100B30004FF0020101914FF0010102914BF24C6024
:100B4000C2F2000011461A464FF0020301F036FED1
:100B50004BF24C60C2F200004FF0000101F0C8FE01
:100B6000FB68184602F03AFF02460B46104619464B
:100B70004FF000024FF0804303F5401303F0BEF83E
:100B800002460B4610461946FFF732FE02460B4658
:100B90001046194607F11007BD4680BD80B58AB0E2
:100BA00000AF13460246FA710A46BA717B71BB79EF
:100BB0001846FFF7A9FF02460B46C7E90223FB7957
:100BC0001846FFF7A1FF02460B46C7E904237B79CD
:100BD000002B15D04BF2F833C2F20003D7E9040121
:100BE000C3E900014BF20043C2F20003D7E902015E
:100BF000C3E900014AF69820C2F2000003F010FE9B
:100C00004BF20043C2F20003D3E90023D7E902010B
:100C100002F096FD02460B4610461946FFF738FED5
:100C200002460B46C7E906234BF2F833C2F2000333
:100C3000D3E90023D7E9040102F082FD02460B4606
:100C400010461946FFF724FE02460B46C7E9082363
:100C5000D7E90601D7E9082302F072FD02460B46E8
:100C600010461946FFF714FE02460B461046194679
:100C700007F12807BD4680BD80B483B000AF4FF0B8
:100C800000037B6003E07B6803F101037B607A680B
:100C900048F29F63C0F201039A42F4DD07F10C07AA
:100CA000BD4680BC704700BF80B483B000AF4FF03A
:100CB00000037B6003E07B6803F101037B607A68DB
:100CC00044F23F23C0F20F039A42F4DD07F10C0710
:100CD000BD4680BC704700BF80B584B000AF4AF607
:100CE000C463C2F200031B684FF47F021A604FF026
:100CF000FF03BB604FF000037B6018E04AF6C4635B
:100D0000C2F200031B681846FFF738FD4AF6C463B9
:100D1000C2F200031A687B684FEA83031344BA687F
:100D20001A60FFF7A9FF7B6803F101037B607B6812
:100D3000172BE3DD4FF000037B602DE04AF6C46320
:100D4000C2F200031B681846FFF718FD4FF00803B6
:100D5000FB600EE04AF6C463C2F200031A68FB6847
:100D60004FEA83031344BA681A60FB6803F1010376
:100D7000FB60FB680F2BEDDDBB68FF2B03D14FF051
:100D80000003BB6002E04FF0FF03BB60FFF78CFF86
:100D90007B6803F101037B607B68052BCEDD07F1E7
:100DA0001007BD4680BD00BF80B584B000AF4FF4D2
:100DB0007F03BB604AF6C463C2F200031B684FF4B2
:100DC0007F021A604FF017037B6018E04AF6C46395
:100DD000C2F200031B681846FFF7D0FC4AF6C46352
:100DE000C2F200031A687B684FEA83031344BA68AF
:100DF0001A60FFF741FF7B6803F1FF337B607B687C
:100E0000002BE3DA4FF000037B602EE04AF6C46368
:100E1000C2F200031B681846FFF7B0FC4FF0100346
:100E2000FB600EE04AF6C463C2F200031A68FB6876
:100E30004FEA83031344BA681A60FB6803F10103A5
:100E4000FB60FB68172BEDDDBB68B3F57F0F03D1AB
:100E50004FF00003BB6002E04FF47F03BB60FFF77D
:100E600023FF7B6803F101037B607B68052BCDDDED
:100E700007F11007BD4680BD80B584B000AF4FF4C8
:100E80007F43BB604AF6C463C2F200031B684FF4A1
:100E90007F421A604FF000037B6025E04AF6C4638E
:100EA000C2F200031B681846FFF768FC4AF6C463E9
:100EB000C2F200031A687B684FEA83031344BA68DE
:100EC0001A604AF6C463C2F200031A687B68C3F171
:100ED00017034FEA83031344BA681A60FFF7CCFE86
:100EE0007B6803F101037B607B68172BD6DD4FF035
:100EF00000037B602EE04AF6C463C2F200031B6865
:100F00001846FFF73BFC4FF00003FB600EE04AF68B
:100F1000C463C2F200031A68FB684FEA83031344F8
:100F2000BA681A60FB6803F10103FB60FB68072BDA
:100F3000EDDDBB68B3F57F4F03D14FF00003BB601D
:100F400002E04FF47F43BB60FFF7AEFE7B6803F126
:100F500001037B607B68052BCDDD07F11007BD46E3
:100F600080BD00BF80B483B000AF0346FB71FB7946
:100F70004FEAD313DBB21A46FB7903F040034FEA82
:100F80006313DBB242EA0303DAB2FB7903F0200316
:100F90004FEAE303DBB242EA0303DAB2FB7903F080
:100FA00010034FEA6303DBB242EA0303DAB2FB79D0
:100FB00003F008034FEA4303DBB242EA0303DAB269
:100FC000FB7903F004034FEAC303DBB242EA0303F5
:100FD000DAB2FB7903F002034FEA4313DBB242EAD1
:100FE0000303DAB2FB794FEAC313DBB242EA03032D
:100FF000DBB2DBB2184607F10C07BD4680BC704778
:1010000090B589B000AF786039604FF00003FB60A5
:101010004FF00003BB6088E0BB684FEAC3037A6807
:1010200042FA03F3DBB21846FFF79CFF0346FB7757
:10103000386802F0E5FC02460B461046194609F0F6
:10104000F3F802460B46104619463DA3D3E90023A8
:1010500002F02AFD02460B46104619463AA3D3E990
:10106000002302F06FFB02460B46C7E904234FF052
:1010700000031C46D7E904014FF000024FF07E53F5
:1010800003F5E00302F0A0FF0346002B02D04FF06F
:1010900001031C46E3B2002B07D04FF000024FF0D3
:1010A0007E5303F5E003C7E904234FF000031C4619
:1010B000D7E904014FF000024FF0000302F066FF91
:1010C0000346002B02D04FF001031C46E3B2002B75
:1010D00005D04FF000024FF00003C7E90423FB7F67
:1010E000184602F07BFC02460B4610461946D7E92B
:1010F000042302F0D9FC02460B461046194602F0C2
:1011000095FF0346DBB21846FFF72CFF03461A464D
:10111000BB684FEAC30302FA03F3FA6842EA030327
:10112000FB60BB6803F10103BB60BB68022B7FF669
:1011300073AFFB68184607F12407BD4690BD00BF9A
:10114000736891ED7C3FD5BF5C8FC2F5285C014090
:1011500080B500AF4BF26043C2F200034FF00102D2
:101160001A704FF0000002F081F980BD80B500AF29
:101170004BF25843C2F200031B7803F10103DAB2C9
:101180004BF25843C2F200031A704BF25843C2F2BA
:1011900000031A784AF6AB23CAF6AA23A3FB02136C
:1011A0004FEA53010B464FEA43030B44C3EB0203E0
:1011B000DAB24BF25843C2F200031A704FF001004A
:1011C00002F054F980BD00BF80B483B000AF134675
:1011D0000246FA710A46BA717B71FB794FEA034203
:1011E000BB794FEA032342EA03027B7942EA030315
:1011F000184607F10C07BD4680BC704790B583B018
:1012000000AF4FF000037B603DE04BF24843C2F279
:1012100000031B687A689A4225DB4BF24843C2F20E
:1012200000031B6803F102027B689A421BDD4AF649
:10123000C463C2F200031A687B684FEA830302EBBF
:1012400003044BF27853C2F200031B681A464BF2B8
:101250006443C2F200031B6810461946FFF7D0FE34
:10126000034623600BE04AF6C463C2F200031A6827
:101270007B684FEA830313444FF000021A607B68D7
:1012800003F101037B607B68172BBEDD07F10C07C0
:10129000BD4690BD80B483B000AF4FF000037B60CB
:1012A00012E04AF6C463C2F200031A687B684FEA90
:1012B00083031A444BF27853C2F200031B68136095
:1012C0007B6803F101037B607B68172BE9DD07F185
:1012D0000C07BD4680BC704798B500AF4BF270401C
:1012E000C2F20000FFF704FA03464FF00002144672
:1012F00018468C4903F084F90346002B02D04FF0C6
:1013000001031C46E3B2002B07D04BF27853C2F224
:1013100000034FF47F421A6064E04BF27043C2F264
:101320000003DB6E4FF00002144618467E4903F0BE
:1013300067F90346002B02D04FF001031C46E3B2CD
:10134000002B15D14BF27043C2F20003D3F890305A
:101350004FF0000214461846734903F051F9034652
:10136000002B02D04FF001031C46E3B2002B32D019
:101370004BF27043C2F20003DB6E4FF000021446E2
:1013800018466A4903F01EF90346002B02D04FF0BD
:1013900001031C46E3B2002B15D14BF27043C2F29D
:1013A0000003D3F890304FF00002144618465F490E
:1013B00003F008F90346002B02D04FF001031C464E
:1013C000E3B2002B07D04BF27853C2F200034FF682
:1013D000FF721A6006E04BF27853C2F200034FF03E
:1013E000FF021A604BF27053C2F20003D3E90023EC
:1013F0004FF000010C46104619464FF000024FF026
:10140000404303F5840302F0C1FD0346002B02D0E4
:101410004FF001031C46E3B2002B1BD14BF270537B
:10142000C2F20003D3E900234FF000010C4610463E
:1014300019464FF000024FF0804303F5840302F099
:10144000B9FD0346002B02D04FF001031C46E3B266
:10145000002B2BD04BF27053C2F20003D3E90023D0
:101460004FF000010C46104619464FF000024FF0B5
:10147000000302F08BFD0346002B02D04FF0010366
:101480001C46E3B2002B02D04FF0170201E04FF0F0
:10149000FF324BF24843C2F200031A604BF278531A
:1014A000C2F200034FF47F421A6029E04BF27053FE
:1014B000C2F20003D3E90023104619464FF00002A0
:1014C0004FF0804303F5002302F018FC02460B4660
:1014D000104619464FF000024FF0804303F52013E9
:1014E00002F030F902460B461046194602F076FD2E
:1014F0000346C3F117024BF24843C2F200031A60DD
:101500004BF25C43C2F200031B681846FFF752F926
:1015100002464BF26443C2F200031A60FFF76EFE0C
:1015200098BD00BF000028420000D04100000C42DE
:1015300080B582B000AF484B3B604BF27043C2F2C3
:101540000003DA6E4BF27043C2F200031B6F1046C9
:10155000194602F091FD03461A464BF27043C2F25F
:101560000003D3F88C301046194602F085FD03467F
:101570001A464BF27043C2F20003D3F89030104683
:10158000194602F079FD03461846344902F030FF4F
:1015900003463B604FF000037B714FF00003BB71CB
:1015A0004FF00003FB7138682D4902F021FF03461C
:1015B000184602F025FA02460B46104619464FF02F
:1015C00000024FF0804303F5B01302F0BBF802466F
:1015D0000B461046194608F0A7FD02460B4610467A
:1015E000194602F023FD03467B7138681D4902F05D
:1015F000FFFE0346184602F003FA02460B46104669
:1016000019464FF000024FF07E5303F5E80302F055
:1016100097F802460B461046194608F085FD02462B
:101620000B461046194602F001FD0346BB7179795D
:10163000BA79FB79084611461A46FFF7C5FD0246FE
:101640004BF27853C2F200031A60FFF723FE07F152
:101650000807BD4680BD00BF0000000000008040BC
:10166000000040C10000404190B585B000AF4FF090
:1016700000037B6075E14BF25043C2F20003D3E9F3
:1016800000234AF6D020C2F2000003F05BF87B682A
:10169000C3F10B03184602F0A1F902460B461046AF
:1016A00019464FF000024FF0804303F5002302F08B
:1016B000FBF902460B46104619464BF25043C2F264
:1016C0000003D3E9002302F03DF802460B46C7E9C8
:1016D00002234AF6D020C2F20000D7E9022303F029
:1016E00031F84FF000031C46D7E902014FF0000229
:1016F0004FF0000302F054FC0346002B02D04FF0E1
:1017000001031C46E3B2002B1FD0D7E902014FF0C2
:1017100000024FF0804303F5002302F013F8024665
:101720000B464FF000010C46104619464FF00002E0
:101730004FF0000302F048FC0346002B02D04FF0AC
:1017400001031C46E3B2002B31D14FF000031C46CD
:10175000D7E9020188A3D3E9002302F021FC034664
:10176000002B02D04FF001031C46E3B2002B2BD01C
:10177000D7E902014FF000024FF0804303F5002348
:1017800001F0E0FF02460B464FF000010C46104608
:10179000194679A3D3E9002302F016FC0346002B77
:1017A00002D04FF001031C46E3B2002B0CD04AF6E6
:1017B000C463C2F200031A687B684FEA83031344D0
:1017C0006FF07F421A60C8E04FF000031C46D7E973
:1017D00002016BA3D3E9002302F0E2FB0346002BD6
:1017E00002D04FF001031C46E3B2002B2BD0D7E907
:1017F00002014FF000024FF0804303F5002301F097
:10180000A1FF02460B464FF000010C461046194658
:101810005BA3D3E9002302F0D7FB0346002B02D0E1
:101820004FF001031C46E3B2002B0CD04AF6C46310
:10183000C2F200031A687B684FEA830313444FF433
:101840007F421A6089E04FF000031C46D7E902018D
:101850004DA3D3E9002302F0A3FB0346002B02D0E3
:101860004FF001031C46E3B2002B2BD0D7E9020155
:101870004FF000024FF0804303F5002301F062FFB8
:1018800002460B464FF000010C46104619463EA397
:10189000D3E9002302F098FB0346002B02D04FF05F
:1018A00001031C46E3B2002B0CD04AF6C463C2F21B
:1018B00000031A687B684FEA830313444FF0FF026A
:1018C0001A604AE04FF000031C46D7E9020130A33A
:1018D000D3E9002302F064FB0346002B02D04FF053
:1018E00001031C46E3B2002B2BD0D7E902014FF0D5
:1018F00000024FF0804303F5002301F023FF02466E
:101900000B464FF000010C461046194620A3D3E9C0
:10191000002302F059FB0346002B02D04FF00103D5
:101920001C46E3B2002B0CD04AF6C463C2F200039B
:101930001A687B684FEA830313444FF47F021A60EE
:101940000BE04AF6C463C2F200031A687B684FEAF0
:10195000830313444FF000021A607B6803F1010314
:101960007B607B68172B7FF786AE07F11407BD46B7
:1019700090BD00BFAFF30080000000000080764003
:10198000000000000080564000000000008066401B
:101990000000000000E0704080B584B004AFFFF7A5
:1019A0006BFA4FF0000300934FF0000301934FF0E8
:1019B000000302934FF028004FF000014FF00002A7
:1019C0004FF00003FFF740F84FF0000300934FF093
:1019D000000301934FF0000302934FF029004FF0F2
:1019E00000014FF000024FF00003FFF72DF84FF019
:1019F00028004FF00C01FEF7A3FF0346002B06D092
:101A00004AF6D820C2F2000002F09CFEF8E74FF040
:101A100029004FF00C01FEF793FF0346002B06D080
:101A20004AF6D820C2F2000002F08CFEF8E74FF030
:101A300000031846BD4680BD80B584B004AFFFF7F3
:101A4000B3F94FF0000300934FF0000301934FF000
:101A5000000302934FF028004FF000014FF0000206
:101A60004FF00003FEF7F0FF4FF0000300934FF03C
:101A7000000301934FF0000302934FF029004FF051
:101A800000014FF000024FF00003FEF7DDFF4FF0C2
:101A900028004FF00C01FEF753FF0346002B06D041
:101AA0004AF6F020C2F2000002F04CFEF8E74FF0D8
:101AB00029004FF00C01FEF743FF0346002B06D030
:101AC0004AF6F020C2F2000002F03CFEF8E74FF0C8
:101AD00000031846BD4680BD80B584B004AFFFF753
:101AE000FBF84FF0000300934FF0000301934FF019
:101AF000010302934FF028004FF000014FF0020263
:101B00004FF00103FEF7A0FF4FF0000300934FF0EA
:101B1000010301934FF0000302934FF029004FF0AF
:101B200002014FF001024FF00003FEF78DFF4FF06E
:101B300028004FF00A01FEF703FF0346002B06D0F2
:101B40004AF60830C2F2000002F0FCFDF8E74FF060
:101B500029004FF00A01FEF7F3FE0346002B06D0E2
:101B60004AF60830C2F2000002F0ECFDF8E74FF050
:101B700000031846BD4680BD80B5A2B000AF4AF64E
:101B8000C463C2F200031B681846FEF7F7FD4BF270
:101B90005943C2F200034FF000021A704BF259434E
:101BA000C2F200031A784BF25843C2F200031A70D3
:101BB00001F0D6FB4FF000004FF0420101F006FCAF
:101BC0004FF001004FF0420101F000FC4FF0000027
:101BD00001F01AFC4FF0010001F016FC4BF24C60D2
:101BE000C2F200004FF000014FF0000200F0B6FC1E
:101BF000FEF704FD4FF028004FF00C01FEF7A0FEA9
:101C00004FF029004FF00C01FEF79AFE4BF26043B3
:101C1000C2F200034FF001021A704BF28053C2F27D
:101C200000034FF000004FF00001C3E900016FF026
:101C30007F0387F8843007F104024FF080031046D9
:101C40004FF000011A4602F013FD4FF02000FEF79E
:101C500043FC4FF02100FEF73FFC07F1840207F13F
:101C6000040310461946FEF77DFC4BF26043C2F2B6
:101C700000031B78DBB24FF029004FF028011A4611
:101C8000FEF78CFF4BF27053C2F20003C3E9000170
:101C90004FF02900FEF738FF4BF25043C2F2000329
:101CA000C3E900014BF26043C2F200034FF00002AF
:101CB0001A704BF25943C2F200031A784BF25843A0
:101CC000C2F200031B789A421DD04FF02900FEF7A4
:101CD00093FE4FF02800FEF78FFE4BF25843C2F2FE
:101CE00000031B78012B06D0022B07D0002B08D154
:101CF000FFF752FE07E0FFF79FFE04E0FFF7ECFE60
:101D000001E0FFF749FE4BF25843C2F200031A7894
:101D10004BF25943C2F200031A704FF02000FEF755
:101D2000BFFB4FF02100FEF7BBFB4AF6C863C2F2CF
:101D300000031B681A684BF25C43C2F200031A608E
:101D400007F1040318464BF27041C2F20001FEF79E
:101D500087FC4BF25843C2F200031B78012B06D0DC
:101D6000022B07D0002B08D1FFF7B6FA08E0FFF7E7
:101D7000DFFB05E0FFF778FC02E0FFF7ADFA64E770
:101D800063E700BF80B483B000AF78604FF0FF33EB
:101D9000184607F10C07BD4680BC704780B483B07D
:101DA00000AF7860FEE700BF80B483B000AF78601A
:101DB00039603B684FF400525A604FF000031846F8
:101DC00007F10C07BD4680BC704700BF80B483B0EC
:101DD00000AF78604FF00103184607F10C07BD46CD
:101DE00080BC704780B485B000AFF860B9607A609D
:101DF0004FF00003184607F11407BD4680BC70473A
:101E000080B485B000AFF860B9607A604FF000032D
:101E1000184607F11407BD4680BC704780B584B0F2
:101E200000AFF860B9607A603B604BF20843C2F2E1
:101E300000031B68002B10D14BF2B050C2F200001F
:101E40004FF461414FF0030200F07EF84BF208437B
:101E5000C2F200034FF001021A603B684BF2B0502F
:101E6000C2F2000079681A4600F070F93B68184623
:101E700007F11007BD4680BD80B584B000AF786023
:101E80004BF20C43C2F200031B68002B08D14BF24B
:101E90000C43C2F200034BF2C862C2F200021A60A5
:101EA0004BF20C43C2F200031B68BB60EFF30883E4
:101EB000FB604BF20C43C2F200031A687B681A44C1
:101EC000FB689A420FD94FF000004FF001014AF62B
:101ED0002432C2F200024FF01903FFF79FFF4FF0C8
:101EE0000100FFF75BFF4BF20C43C2F200031A68DC
:101EF0007B681A444BF20C43C2F200031A60BB68C1
:101F0000184607F11007BD4680BD00BF80B483B0FE
:101F100000AF0346FB804EF20013CEF20003B7F988
:101F200006204FEA5212F98801F01F014FF001001C
:101F300000FA01F102F1600243F8221007F10C07E8
:101F4000BD4680BC704700BF80B588B000AFF86068
:101F5000B9601346FB714FF00103FB824FF00003A1
:101F6000BB61FA684BF2B053C2F200039A4207D049
:101F7000FA684BF28853C2F200039A4200D000BEC6
:101F8000BB68002B00D100BE01F0BAFAFA684BF230
:101F9000B053C2F200039A422ED1FB684FF0804248
:101FA0001A60FB684FF084425A60FB684FF00A02E7
:101FB0001A814AF6D463C2F200031B68BB6142F285
:101FC0000003CEF2040342F20002CEF20402126BCE
:101FD00042F080021A634FF00A00FFF797FF42F2C7
:101FE0000003CEF2040342F20002CEF20402126BAE
:101FF00022F080021A6331E0FA6840F20003C4F272
:1020000001031360FA6840F20003C4F22023536016
:10201000FB684FF00B021A814AF6D863C2F2000344
:102020001B68BB6142F20003CEF2040342F20002DD
:10203000CEF20402126B42F480721A634FF00B006E
:10204000FFF764FF42F20003CEF2040342F2000203
:10205000CEF20402126B22F480721A63FB681B68D2
:102060004FF000021A71BB68002B21D0BA69BB681F
:10207000B2FBF3F3FB61FB6903F00803002B06D00E
:10208000FB694FEA131303F10103FB6103E0FB69F2
:102090004FEA1313FB61FA694FF6FF739A4200D9B6
:1020A00000BEFA694FF6FF739A4201D8FB69FB82C2
:1020B000FB685B684FF00102C3F89C21FB681B685A
:1020C000FA8A4FEA122292B2D2B21A71FB681B68E6
:1020D000FA8AD2B21A70FB685B684FF00002C3F84C
:1020E0009C21FB681B68FA791A73FB681B684FF028
:1020F0000E021A72FB685B684FF00002C3F81022F0
:10210000FB684FF000021A61FB684FF00002DA60D2
:10211000FB684FF000025A61FB684FF00002DA6181
:10212000FA6842F24D33C2F200031362FB684FF0CB
:1021300000029A61FB684FF000025A62FB684FF0A0
:1021400000029A7207F12007BD4680BD80B489B0B5
:1021500000AFF860B9607A604FF000033B61FA6845
:102160004BF2B053C2F200039A4207D0FA684BF226
:102170008853C2F200039A4200D000BEBB68002B15
:1021800000D100BE7B68002B00D100BEFA684BF284
:10219000B053C2F200039A4206D0FA684BF2885359
:1021A000C2F200039A423DD1BB68002B3AD07B6853
:1021B000002B37D0FB681B681B7DFB76FB689A7A87
:1021C000FB7E42EA0303DAB2FB689A72FB7E03F0FD
:1021D0002003002B23D04FF01003FB617B680F2BF3
:1021E00001D87B68FB614FF000037B610EE0FB6868
:1021F0001B68B9683A690A4412781A703B6903F19E
:1022000001033B617B6903F101037B617A69FB692F
:102210009A42ECD37A687B69C3EB02037B607B68EC
:10222000002BC7D107F12407BD4680BC704700BF13
:1022300080B584B000AF78607A684BF2B053C2F2D8
:1022400000039A4207D07A684BF28853C2F2000327
:102250009A4200D000BE7A684BF2B053C2F200033B
:102260009A4206D07A684BF28853C2F200039A422F
:1022700067D17B681B681B7ADBB203F00F03FB732B
:10228000FB7B0C2B54D801A252F823F0C122002072
:1022900031230020DD22002031230020F9220020FC
:1022A000312300201523002031230020312300207A
:1022B000312300203123002031230020F922002087
:1022C0007B685B6A002B00D100BE7B685B6A002BD9
:1022D00030D07B685B6A7868984732E07B681B6A1D
:1022E000002B00D100BE7B681B6A002B24D07B68CA
:1022F0001B6A7868984724E07B68DB69002B00D173
:1023000000BE7B68DB69002B18D07B68DB697868CE
:10231000984716E07B689B69002B00D100BE7B6864
:102320009B69002B0CD07B689B697868984708E014
:1023300000BE06E000BF04E000BF02E000BF00E016
:1023400000BF07F11007BD4680BD00BF80B487B055
:1023500000AF78607A684BF2B053C2F200039A4241
:1023600007D07A684BF28853C2F200039A4200D039
:1023700000BE7B68DB68002B00D100BE7B681B6958
:10238000002B00D100BE7A684BF2B053C2F20003BA
:102390009A4206D07A684BF28853C2F200039A42FE
:1023A00052D17B68DB68002B4ED07B681B69002B09
:1023B0004AD07B681B681B7DFB727B689A7AFB7A2C
:1023C00042EA0303DAB27B689A72FB7A03F02003D5
:1023D000002B29D04FF010033B617B681A697B68A2
:1023E0005B69C3EB02037B617B690F2B01D87B69BF
:1023F0003B614FF00003FB6012E07B681B687A686A
:10240000D1687A6852690A4412781A707B685B69ED
:1024100003F101027B685A61FB6803F10103FB6071
:10242000FA683B699A42E8D37B685A697B681B6902
:102430009A4209D17B684FF000021A617B685B68A1
:102440004FF00002C3F8842007F11C07BD4680BC92
:10245000704700BF684620F007018D4689B500AF80
:102460004BF2B050C2F20000FFF7E2FE4FF00A005C
:10247000FFF74CFDBD46BDE889408546704700BF6B
:10248000684620F007018D4689B500AF4BF28850B1
:10249000C2F20000FFF7CCFE4FF00B00FFF736FD55
:1024A000BD46BDE889408546704700BF80B483B013
:1024B00000AF0346FB804EF20013CEF20003B7F9E3
:1024C00006204FEA5212F98801F01F014FF0010077
:1024D00000FA01F143F8221007F10C07BD4680BC59
:1024E000704700BF80B483B000AF0346FB804EF25C
:1024F0000013CEF20003B7F906204FEA5212F98812
:1025000001F01F014FF0010000FA01F102F1200279
:1025100043F8221007F10C07BD4680BC704700BF8E
:1025200080B483B000AF0346FB804EF20013CEF2BE
:102530000003B7F906204FEA5212F98801F01F0193
:102540004FF0010000FA01F102F1600243F822109D
:1025500007F10C07BD4680BC704700BF80B584B052
:1025600000AF786013460A46FA70BB70BB78FB6018
:102570007A684BF2D853C2F200039A4207D07A68C5
:102580004BF24C63C2F200039A4200D000BE00F04E
:1025900063FE0346BB6078684FF000014FF07402A1
:1025A00002F066F87A684BF2D853C2F200039A42FE
:1025B0002CD17B684FF00E025A827A6842F20003F7
:1025C000C4F2000353617A6840F20003C4F20423AA
:1025D000936142F20003CEF2040342F20002CEF213
:1025E0000402126B42F400621A634FF00E00FFF710
:1025F00097FF42F20003CEF2040342F20002CEF251
:102600000402126B22F400621A632BE07B684FF025
:1026100011025A827A6842F20003C4F20103536144
:102620007A6840F20003C4F22423936142F200036B
:10263000CEF2040342F20002CEF20402126B42F424
:1026400080521A634FF01100FFF76AFF42F2000355
:10265000CEF2040342F20002CEF20402126B22F424
:1026600080521A637B689B691A467B68DA61FB7843
:102670004FEA43027B681A607B689B69FA684FEAFD
:10268000920202F00102DA617B689B69FA684FEA04
:10269000520202F001025A607B689B69FA6802F0FC
:1026A00001021A607B685B697A681268D2B21A7399
:1026B0007B689B694FF001029A61B86800F0DEFD0B
:1026C00007F11007BD4680BD80B586B000AFF86049
:1026D0007A600A46FA727B80FA684BF2D853C2F2EB
:1026E00000039A4207D0FA684BF24C63C2F200032F
:1026F0009A4200D000BE00F0AFFD03467B61FB684C
:102700001B7A002B03D1FB684FF001021A72FB68A1
:102710004FF0010283F87220FB7A4FEA4302FB6814
:102720005A60FB684FF00002DA62FB687A681A624E
:102730007A88FB685A62FB684FF000029A62FB6875
:102740004FF0010283F83C20FB6897F820201A74B0
:10275000FB6893F85C30DBB2012B05D1FB684FF0CE
:10276000010283F8712004E0FB689B694FF00102CD
:102770005A61FB6893F87030012B11D1FB689B699B
:102780004FF00002DA60FB685B691B79FB74FB7C2D
:10279000DBB2FB74FB685B8A1BB21846FFF7C0FE16
:1027A000FB685B8A1BB21846FFF780FE786900F071
:1027B00065FD07F11807BD4680BD00BF80B586B036
:1027C00000AFF8607A600A46FA727B80FA684BF2D2
:1027D000D853C2F200039A4207D0FA684BF24C6316
:1027E000C2F200039A4200D000BE7B88002B00D1C9
:1027F00000BE7B68002B00D100BEBB8C002B00D13B
:1028000000BE3B6A002B00D100BEBB8C002B6AD0FF
:102810007B88002B67D000F01FFD03467B61FB68BF
:102820001B7A002B03D1FB684FF003021A72FB687E
:102830004FF0030283F87220FB7A4FEA4302FB68F1
:102840005A60FB684FF00002DA62FB687A681A622D
:102850007A88FB685A62FB684FF000029A62FB6854
:102860003A6A1A63BA8CFB685A63FB684FF000023D
:102870009A63FB684FF0010283F83C20FB6897F8ED
:1028800028201A74FB6893F85C30DBB2012B05D169
:10289000FB684FF0010283F8712004E0FB689B693C
:1028A0004FF001025A61FB6893F87030012B11D18F
:1028B000FB689B694FF00002DA60FB685B691B797B
:1028C000FB74FB7CDBB2FB74FB685B8A1BB21846B3
:1028D000FFF726FEFB685B8A1BB21846FFF7E6FD92
:1028E000786900F0CBFC07F11807BD4680BD00BF3A
:1028F00080B485B000AF786039607A684BF2D85305
:10290000C2F200039A4207D07A684BF24C63C2F2DB
:1029100000039A4200D000BE7B683A681A647B6864
:1029200093F83C30FB73FB7B012BF8D0FB7B184604
:1029300007F11407BD4680BC704700BF80B483B068
:1029400000AF78607B6893F86830002B04D07B6818
:102950009B694FF001029A6007F10C07BD4680BCED
:10296000704700BF80B584B000AF78604FF00103BE
:10297000BB737A684BF2D853C2F200039A4207D075
:102980007A684BF24C63C2F200039A4200D000BE58
:102990007B685B691B79FB72FB7ADBB2A3F10803EE
:1029A000D02B00F21C8401A252F823F0F12C00205D
:1029B000DF310020DF310020DF310020DF31002057
:1029C000DF310020DF310020DF310020F12C00203A
:1029D000DF310020DF310020DF310020DF31002037
:1029E000DF310020DF310020DF310020952D002075
:1029F000DF310020DF310020DF310020DF31002017
:102A0000DF310020DF310020DF310020712D002078
:102A1000DF310020DF310020DF310020DF310020F6
:102A2000DF310020DF310020DF310020952D002034
:102A3000DF310020DF310020DF310020DF310020D6
:102A4000DF310020DF310020DF310020292E00207F
:102A5000DF310020DF310020DF310020DF310020B6
:102A6000DF310020DF310020DF310020652D002024
:102A7000DF310020DF310020DF310020DF31002096
:102A8000DF310020DF310020DF3100204D2E00201B
:102A9000DF310020DF310020DF310020DF31002076
:102AA000DF310020DF310020DF3100209D2E0020AB
:102AB000DF310020DF310020DF310020DF31002056
:102AC000DF310020DF310020DF310020C12E002067
:102AD000DF310020DF310020DF310020DF31002036
:102AE000DF310020DF310020DF310020FB2E00200D
:102AF000DF310020DF310020DF310020DF31002016
:102B0000DF310020DF310020DF3100209D2F002049
:102B1000DF310020DF310020DF310020DF310020F5
:102B2000DF310020DF310020DF310020932F002033
:102B3000DF310020DF310020DF310020DF310020D5
:102B4000DF310020DF310020DF3100209D2F002009
:102B5000DF310020DF310020DF310020DF310020B5
:102B6000DF310020DF310020DF310020932F0020F3
:102B7000DF310020DF310020DF310020DF31002095
:102B8000DF310020DF310020DF310020DF2F002087
:102B9000DF310020DF310020DF310020DF31002075
:102BA000DF310020DF310020DF3100205F2F0020E7
:102BB000DF310020DF310020DF310020DF31002055
:102BC000DF310020DF310020DF310020DF2F002047
:102BD000DF310020DF310020DF310020DF31002035
:102BE000DF310020DF310020DF3100205F2F0020A7
:102BF000DF310020DF310020DF310020DF31002015
:102C0000DF310020DF310020DF3100203B300020A9
:102C1000DF310020DF310020DF310020DF310020F4
:102C2000DF310020DF310020DF31002013310020B0
:102C3000DF310020DF310020DF310020DF310020D4
:102C4000DF310020DF310020DF3100201331002090
:102C5000DF310020DF310020DF310020DF310020B4
:102C6000DF310020DF310020DF3100201331002070
:102C7000DF310020DF310020DF310020DF31002094
:102C8000DF310020DF310020DF310020A5310020BE
:102C9000DF310020DF310020DF310020DF31002074
:102CA000DF310020DF310020DF310020A53100209E
:102CB000DF310020DF310020DF310020DF31002054
:102CC000DF310020DF310020DF310020DF31002044
:102CD000DF310020DF310020DF310020DF31002034
:102CE000DF310020DF310020DF310020E53000201F
:102CF0007B689B694FF000025A617B685B697A6868
:102D00005268D2B21A727B689B697A68D26AC3F839
:102D100000217B68DB6A002B04D17B684FF0000246
:102D20009A6207E07B68DB6A012B03D17B684FF076
:102D300000029A637B6893F87130002B04D07B68A3
:102D40004FF0000283F871207B681A7A7B6893F851
:102D500072309A4200F067827B6893F872207B6839
:102D60001A7269E27B689B694FF001025A6163E263
:102D70007B689B694FF001021A617B684FF0020289
:102D800083F83C207B684FF000021A727868FFF7E6
:102D9000D5FD51E27B689A6A7B685B6A9A420DD2E4
:102DA0007B685A697B68196A7B689B6A1944097851
:102DB000117203F101027B689A623DE27B681B7A23
:102DC000032B09D17B684FF00102DA627B689B69B3
:102DD0004FF001025A612FE27B684FF000021A7235
:102DE0007B681B7C03F001037B737B687A7B83F831
:102DF00070207B7B002B08D17B689B694FF0010220
:102E00001A617868FFF79AFD08E07B685B8A1BB25D
:102E10001846FFF767FB4FF00003BB737B684FF06A
:102E2000000283F83C2007E27B689B694FF00102B7
:102E30001A617B684FF0020283F83C207B684FF0F8
:102E400000021A727868FFF779FDF5E17B685B6B29
:102E5000012B05D97B689B694FF001029A60EBE179
:102E60007B685B6B012B05D17B689B694FF000028F
:102E70009A60E1E17B689B694FF001029A607B6890
:102E80009B694FF001021A617B684FF0000283F8E2
:102E90003C207B684FF000021A72CDE17B689B6991
:102EA0004FF001021A617B684FF0020283F83C2068
:102EB0007B684FF000021A727868FFF73FFDBBE1B4
:102EC0007B681A6B7B689B6B1A4479684969097A3D
:102ED000C9B2117003F101027B689A637B689A6B37
:102EE0007B685B6B03F1FF339A42C0F09E817B6885
:102EF0009B694FF000029A609EE17B681A6B7B68C9
:102F00009B6B13447A685269127AD2B21A707B684A
:102F10001B7C03F001037B737B687A7B83F8702052
:102F20007B7B002B08D17B689B694FF001021A6103
:102F30007868FFF703FD08E07B685B8A1BB21846E0
:102F4000FFF7D0FA4FF00003BB737B684FF000022D
:102F50001A727B684FF0000283F83C206CE17B68BA
:102F60009B694FF001029A607B684FF000021A7271
:102F70007B684FF0000283F85C207B6893F8713027
:102F8000002B00F054817B689B694FF001025A616D
:102F900052E17B684FF0010283F871207B684FF0AB
:102FA00004021A727B684FF000029A657B684FF04A
:102FB0000002DA607B689B695B69002B09D07B6843
:102FC0009B694FF000025A617B684FF0010283F861
:102FD00071207B684FF0010283F85C202CE17B6854
:102FE0001B6D002B1CD07B689A6D7B685B6D9A42D1
:102FF00016D27B685B691B7A3B737B681A6D7B68B2
:103000009B6D1A44397B117003F101027B689A654C
:103010007B68DB684FEA03223B7B1A447B68DA60FB
:103020007B689A6D7B685B6D9A42C0F002817B6819
:103030009B694FF000029A60FEE07B681B7A042BCC
:1030400035D17B689A6D7B681B6E9A4203D17B6891
:10305000DA687B68DA647B685B6E002B21D07B6862
:103060005B6E7A68116D7A68926D92B27868984753
:103070000346FB73FB7B002B08D17868FFF75EFCEF
:103080007B689B694FF001029A6017E07B689B693F
:103090004FF000029A607B684FF0000283F86820CE
:1030A0000CE07B689B694FF001029A6006E07B6848
:1030B0004FF00002DA647868FFF740FC7B684FF05D
:1030C000000283F85C207B6893F87130002B04D0F9
:1030D0007B689B694FF001025A617B684FF00002E8
:1030E0001A72A9E07B684FF000021A727B684FF0F9
:1030F0000002DA647B6893F85C30DBB2012B04D108
:103100007B684FF0020283F85C207868FFF716FCBA
:1031100092E0FB7ADBB2A82B1BD17B684FF0050253
:103120001A727B684FF00002DA607B684FF0010290
:1031300083F85C207B689B695B69002B09D07B6806
:103140009B694FF000025A617B684FF0010283F8DF
:1031500071207B68DA6C7B689B6C9A4205D37B6834
:103160005B694FF0FF321A720CE07B685A697B682A
:10317000596C7B68DB6C19440978117203F1010208
:103180007B68DA647B68DA6C7B689B6C9A4252D30A
:103190007B689B694FF000029A607B684FF00002E9
:1031A000DA6449E07B684FF00002DA647B689B696F
:1031B0004FF001029A607B684FF0000283F85C20B8
:1031C0007B6893F87130002B04D07B689B694FF0CB
:1031D00001025A617B684FF000021A722CE07B6892
:1031E0009B694FF000025A617B684FF000021A722F
:1031F0007B684FF00002DA647B6893F83C30DBB206
:10320000012B04D17B684FF0020283F83C207B68DD
:1032100093F85C30DBB2012B0ED17B684FF00202D9
:1032200083F85C2008E000BF06E000BF04E000BFB8
:1032300002E000BF00E000BFBB7B002B04D07B6836
:103240009B694FF00002DA607B685B691B79FB7257
:1032500007F11007BD4680BD80B582B000AF00F019
:103260002DF903467B604FF0010000F037F97B68D1
:10327000184607F10807BD4680BD00BF80B582B083
:1032800000AF7860786800F029F907F10807BD46BB
:1032900080BD00BF684620F007018D4689B500AFAC
:1032A0004BF2D850C2F20000FFF75CFB4FF00E006B
:1032B000FFF736F9BD46BDE889408546704700BF37
:1032C000684620F007018D4689B500AF4BF24C608F
:1032D000C2F20000FFF746FB4FF01100FFF720F9A4
:1032E000BD46BDE889408546704700BF80B483B0C5
:1032F00000AF0346FB804EF20013CEF20003B7F995
:1033000006204FEA5212F98801F01F014FF0010028
:1033100000FA01F143F8221007F10C07BD4680BC0A
:10332000704700BF80B483B000AF0346FB804EF20D
:103330000013CEF20003B7F906204FEA5212F988C3
:1033400001F01F014FF0010000FA01F102F16002EB
:1033500043F8221007F10C07BD4680BC704700BF40
:1033600080B582B000AF42F20003CEF2040342F215
:103370000002CEF20402126B42F480421A634FF054
:1033800000037B600EE07A684AF6C033C2F20003A5
:1033900033F812301BB21846FFF7C4FF7B6803F105
:1033A00001037B607B681F2BEDD942F20003CEF254
:1033B000040342F20002CEF20402126B22F48042B5
:1033C0001A6307F10807BD4680BD00BF80B485B011
:1033D00000AF03463960FB71FB79FB60FB681F2B74
:1033E00000D900BEFB681F2B08D8FA684AF64033A4
:1033F000C2F2000353F822303A681A6007F114074A
:10340000BD4680BC704700BF80B584B000AF0346A6
:10341000FB71FB79FB60FB681F2B00D900BEFB68CA
:103420001F2B1ED8FA684AF64033C2F2000353F845
:1034300022301B68BB60FA684AF64033C2F20003D0
:1034400053F82230BA6842F008021A60FA684AF665
:10345000C033C2F2000333F812301BB21846FFF734
:1034600045FF07F11007BD4680BD00BF80B584B0A1
:1034700000AF0346FB71FB79FB60FB681F2B00D993
:1034800000BEFB681F2B15D843F20003C4F20103F2
:10349000FA684FF0010101FA02F2C3F88020FA68DD
:1034A0004AF6C033C2F2000333F812301BB218469A
:1034B000FFF738FF07F11007BD4680BD80B483B029
:1034C00000AF4FF000037B60EFF310837B607B68FD
:1034D000184607F10C07BD4680BC704780B483B026
:1034E00000AF78607B6883F3108807F10C07BD4656
:1034F00080BC704780B400AFBD4680BC704700BF41
:1035000080B58AB000AF4AF60043C2F20003BC4661
:103510000FCB8CE80F0042F20003CEF204039B6C49
:103520004FEA930303F003034FEA830307F12802F2
:10353000134453F8283C3B6142F20003CEF20403EB
:103540009B6C4FEA131303F003034FEA830307F165
:103550002802134453F8283C7B6142F20003CEF268
:1035600004039B6C4FEA931303F003034FEA8303B6
:1035700007F12802134453F8283CBB6142F20003D0
:10358000CEF20403DB6C4FEA132303F01F033B620C
:1035900042F20003CEF20403DB6C4FEA533303F034
:1035A00001037B623B6A03F10103FB617B6A002B31
:1035B00003D0FB694FEA4303FB6100F049F8024680
:1035C0004AF6D063C2F200031A604AF6D063C2F230
:1035D00000031A683B69B2FBF3F24AF6D463C2F205
:1035E00000031A604AF6D063C2F200031A687B69CE
:1035F000B2FBF3F24AF6D863C2F200031A604AF64D
:10360000D063C2F200031A68BB69B2FBF3F24AF658
:10361000DC63C2F200031A604AF6D063C2F2000310
:103620001A68FB69B2FBF3F24AF6E063C2F20003E8
:103630001A604AF6D063C2F200031A684AF6CC63F5
:10364000C2F200031A6007F12807BD4680BD00BF23
:1036500080B48BB000AF4FF000037B6040F61C03DA
:10366000C6F20803BB6040F23023C6F20803FB60D9
:10367000FB681B6823F070433B613A6941F2CF134A
:10368000C0F2A1539A4208D14EF62C73C6F2010340
:103690007B617B691B687B603DE0BB681A6844F214
:1036A0004133C4F654439A4235D140F64003C6F242
:1036B0000803BB61BB691B68FB61FB6923F07F43A7
:1036C000FB61FA6940F20033C0F201039A4222D949
:1036D000FA694FF6FF73C0F201039A4208D841F22B
:1036E0002C63C6F208033B623B6A1B687B6012E0F6
:1036F000FA694FF6FF73C0F202039A4208D841F606
:10370000AC63C6F208037B627B6A1B687B6002E0E5
:103710004FF000037B607B68002B05D100BE47F6AD
:103720004003C0F27D137B607B68184607F12C07CD
:10373000BD4680BC704700BF81F0004102E000BF81
:1037400083F0004330B54FEA41044FEA430594EA61
:10375000050F08BF90EA020F1FBF54EA000C55EA9C
:10376000020C7FEA645C7FEA655C00F0E2804FEA6D
:103770005454D4EB5555B8BF6D420CDD2C4480EA4F
:10378000020281EA030382EA000083EA010180EA7F
:10379000020281EA0303362D88BF30BD11F0004FCD
:1037A0004FEA01314FF4801C4CEA113102D0404203
:1037B00061EB410113F0004F4FEA03334CEA13333E
:1037C00002D0524263EB430394EA050F00F0A78056
:1037D000A4F10104D5F1200E0DDB02FA0EFC22FA51
:1037E00005F2801841F1000103FA0EF2801843FA45
:1037F00005F359410EE0A5F120050EF1200E012A36
:1038000003FA0EFC28BF4CF0020C43FA05F3C01873
:1038100051EBE37101F0004507D54FF0000EDCF1EC
:10382000000C7EEB00006EEB0101B1F5801F1BD395
:10383000B1F5001F0CD349085FEA30004FEA3C0C99
:1038400004F101044FEA445212F5800F80F09A808F
:10385000BCF1004F08BF5FEA500C50F1000041EB93
:10386000045141EA050130BD5FEA4C0C404141EB97
:10387000010111F4801FA4F10104E9D191F0000FBE
:1038800004BF01460020B1FA81F308BF2033A3F141
:103890000B03B3F120020CDA0C3208DD02F1140C38
:1038A000C2F10C0201FA0CF021FA02F10CE002F173
:1038B0001402D8BFC2F1200C01FA02F120FA0CFC6C
:1038C000DCBF41EA0C019040E41AA2BF01EB0451B5
:1038D000294330BD6FEA04041F3C1CDA0C340EDCB3
:1038E00004F11404C4F1200220FA04F001FA02F3F6
:1038F00040EA030021FA04F345EA030130BDC4F1B4
:103900000C04C4F1200220FA02F001FA04F340EAA8
:103910000300294630BD21FA04F0294630BD94F059
:10392000000F83F4801306BF81F480110134013D40
:103930004EE77FEA645C18BF7FEA655C29D094EAB1
:10394000050F08BF90EA020F05D054EA000C04BF2F
:103950001946104630BD91EA030F1EBF002100201A
:1039600030BD5FEA545C05D14000494128BF41F0B9
:10397000004130BD14F580043CBF01F5801130BD1D
:1039800001F0004545F0FE4141F470014FF00000A8
:1039900030BD7FEA645C1ABF194610467FEA655C59
:1039A0001CBF0B46024650EA013406BF52EA0335FB
:1039B00091EA030F41F4002130BD00BF90F0000FE9
:1039C00004BF0021704730B54FF4806404F1320425
:1039D0004FF000054FF0000150E700BF90F0000FDE
:1039E00004BF0021704730B54FF4806404F1320405
:1039F00010F0004548BF40424FF000013EE700BFD5
:103A000042004FEAE2014FEA31014FEA02701FBF64
:103A100012F07F4393F07F4F81F06051704792F036
:103A2000000F14BF93F07F4F704730B54FF46074B0
:103A300001F0004521F0004120E700BF50EA0102FB
:103A400008BF704730B54FF000050AE050EA0102A8
:103A500008BF704730B511F0004502D5404261EB18
:103A600041014FF4806404F132045FEA915C3FF459
:103A7000DCAE4FF003025FEADC0C18BF03325FEAF2
:103A8000DC0C18BF033202EBDC02C2F1200300FAA7
:103A900003FC20FA02F001FA03FE40EA0E0021FACC
:103AA00002F11444C1E600BF70B54FF0FF0C4CF4B6
:103AB000E06C1CEA11541DBF1CEA135594EA0C0F6C
:103AC00095EA0C0F00F0DEF82C4481EA030621EAA7
:103AD0004C5123EA4C5350EA013518BF52EA0335E2
:103AE00041F4801143F4801338D0A0FB02CE4FF094
:103AF0000005E1FB02E506F00042E0FB03E54FF0C4
:103B00000006E1FB03569CF0000F18BF4EF0010EBB
:103B1000A4F1FF04B6F5007F64F5407404D25FEAB7
:103B20004E0E6D4146EB060642EAC62141EA55516A
:103B30004FEAC52040EA5E504FEACE2EB4F1FD0CAC
:103B400088BFBCF5E06F1ED8BEF1004F08BF5FEA2A
:103B5000500E50F1000041EB045170BD06F00046DC
:103B600046EA010140EA020081EA0301B4EB5C0489
:103B7000C2BFD4EB0C0541EA045170BD41F4801181
:103B80004FF0000E013C00F3AB8014F1360FDEBFA6
:103B9000002001F0004170BDC4F10004203C35DA82
:103BA0000C341BDC04F11404C4F1200500FA05F305
:103BB00020FA04F001FA05F240EA020001F00042A6
:103BC00021F0004110EBD37021FA04F642EB06011C
:103BD0005EEA430E08BF20EAD37070BDC4F10C0446
:103BE000C4F1200500FA04F320FA05F001FA04F20A
:103BF00040EA020001F0004110EBD37041F10001F6
:103C00005EEA430E08BF20EAD37070BDC4F1200500
:103C100000FA05F24EEA020E20FA04F301FA05F268
:103C200043EA020321FA04F001F0004121FA04F210
:103C300020EA020000EBD3705EEA430E08BF20EAE0
:103C4000D37070BD94F0000F0FD101F0004640001A
:103C500041EB010111F4801F08BF013CF7D041EA9C
:103C6000060195F0000F18BF704703F000465200A0
:103C700043EB030313F4801F08BF013DF7D043EA71
:103C80000603704794EA0C0F0CEA135518BF95EA27
:103C90000C0F0CD050EA410618BF52EA4306D1D1AE
:103CA00081EA030101F000414FF0000070BD50EACD
:103CB000410606BF1046194652EA430619D094EA57
:103CC0000C0F02D150EA013613D195EA0C0F05D141
:103CD00052EA03361CBF104619460AD181EA030195
:103CE00001F0004141F0FE4141F470014FF000004D
:103CF00070BD41F0FE4141F4780170BD70B54FF0E8
:103D0000FF0C4CF4E06C1CEA11541DBF1CEA135567
:103D100094EA0C0F95EA0C0F00F0A7F8A4EB050449
:103D200081EA030E52EA03354FEA013100F0888040
:103D30004FEA03334FF0805545EA131343EA126309
:103D40004FEA022245EA111545EA10654FEA0026BE
:103D50000EF000419D4208BF964244F1FD0404F577
:103D6000407402D25B084FEA3202B61A65EB0305D3
:103D70005B084FEA32024FF480104FF4002CB6EB90
:103D8000020E75EB030E22BFB61A754640EA0C0010
:103D90005B084FEA3202B6EB020E75EB030E22BF50
:103DA000B61A754640EA5C005B084FEA3202B6EB91
:103DB000020E75EB030E22BFB61A754640EA9C0050
:103DC0005B084FEA3202B6EB020E75EB030E22BF20
:103DD000B61A754640EADC0055EA060E18D04FEADE
:103DE000051545EA16754FEA06164FEAC30343EA7E
:103DF00052734FEAC2025FEA1C1CC0D111F4801F4B
:103E00000BD141EA00014FF000004FF0004CB6E743
:103E100011F4801F04BF01430020B4F1FD0C88BFE2
:103E2000BCF5E06F3FF6AFAEB5EB030C04BFB6EBED
:103E3000020C5FEA500C50F1000041EB045170BDE0
:103E40000EF0004E4EEA113114EB5C04C2BFD4EB0D
:103E50000C0541EA045170BD41F480114FF0000E91
:103E6000013C90E645EA060E8DE60CEA135594EA0D
:103E70000C0F08BF95EA0C0F3FF43BAF94EA0C0F10
:103E80000AD150EA01347FF434AF95EA0C0F7FF485
:103E900025AF104619462CE795EA0C0F06D152EAD9
:103EA00003353FF4FDAE1046194622E750EA4106BD
:103EB00018BF52EA43067FF4C5AE50EA41047FF4CE
:103EC0000DAF52EA43057FF4EBAE12E74FF0FF3C33
:103ED00006E000BF4FF0010C02E000BF4FF0010C04
:103EE0004DF804CD4FEA410C7FEA6C5C4FEA430C7D
:103EF00018BF7FEA6C5C1BD001B050EA410C0CBFCC
:103F000052EA430C91EA030F02BF90EA020F00202D
:103F1000704710F1000F91EA030F58BF994208BF94
:103F200090422CBFD8176FEAE37040F00100704751
:103F30004FEA410C7FEA6C5C02D150EA013C07D1A8
:103F40004FEA430C7FEA6C5CD6D152EA033CD3D0F3
:103F50005DF8040B704700BF8446104662468C46ED
:103F60001946634600E000BF01B5FFF7B7FF002820
:103F700048BF10F1000F01BD4DF808EDFFF7F4FF49
:103F80000CBF012000205DF808FB00BF4DF808EDD4
:103F9000FFF7EAFF34BF012000205DF808FB00BFF7
:103FA0004DF808EDFFF7E0FF94BF012000205DF819
:103FB00008FB00BF4DF808EDFFF7CEFF94BF0120CE
:103FC00000205DF808FB00BF4DF808EDFFF7C4FFC7
:103FD00034BF012000205DF808FB00BF4FEA41021A
:103FE00012F5001215D211D56FF47873B3EB62524B
:103FF00012D94FEAC12343F0004343EA505311F072
:10400000004F23FA02F018BF404270474FF0000003
:10401000704750EA013005D111F0004008BF6FF041
:10402000004070474FF00000704700BF4A0011D2B7
:1040300012F5001211D20DD56FF47873B3EB625202
:104040000ED44FEAC12343F0004343EA505323FA0E
:1040500002F070474FF00000704750EA013002D183
:104060004FF0FF3070474FF00000704780F0004085
:1040700002E000BF81F0004142001FBF5FEA410340
:1040800092EA030F7FEA226C7FEA236C6AD04FEA40
:104090001262D2EB1363C1BFD21841404840414085
:1040A000B8BF5B42192B88BF704710F0004F40F437
:1040B000000020F07F4018BF404211F0004F41F453
:1040C000000121F07F4118BF494292EA030F3FD01F
:1040D000A2F1010241FA03FC10EB0C00C3F1200332
:1040E00001FA03F100F0004302D5494260EB4000C1
:1040F000B0F5000F13D3B0F1807F06D340084FEA2C
:10410000310102F10102FE2A51D2B1F1004F40EB20
:10411000C25008BF20F0010040EA03007047490088
:1041200040EB000010F4000FA2F10102EDD1B0FA53
:1041300080FCACF1080CB2EB0C0200FA0CF0AABF48
:1041400000EBC25052421843BCBFD04018437047E6
:1041500092F0000F81F4000106BF80F400000132EC
:10416000013BB5E74FEA41037FEA226C18BF7FEAC3
:10417000236C21D092EA030F04D092F0000F08BF05
:104180000846704790EA010F1CBF0020704712F0EC
:104190007F4F04D1400028BF40F00040704712F12B
:1041A00000723CBF00F50000704700F0004343F090
:1041B000FE4040F4000070477FEA226216BF0846C6
:1041C0007FEA23630146420206BF5FEA412390EA89
:1041D000010F40F4800070474FF0000304E000BF7F
:1041E00010F0004348BF40425FEA000C08BF704730
:1041F00043F0964301464FF000001CE050EA0102F4
:1042000008BF70474FF000030AE000BF50EA010208
:1042100008BF704711F0004302D5404261EB4101F5
:104220005FEA010C02BF84460146002043F0B6431A
:1042300008BFA3F18053A3F50003BCFA8CF2083A3F
:10424000A3EBC25310DB01FA02FC634400FA02FC48
:10425000C2F12002BCF1004F20FA02F243EB02004F
:1042600008BF20F00100704702F1200201FA02FCB1
:10427000C2F1200250EA4C0021FA02F243EB0200A4
:1042800008BF20EADC7070474FF0FF0C1CEAD052E8
:104290001EBF1CEAD15392EA0C0F93EA0C0F6FD0A9
:1042A0001A4480EA010C400218BF5FEA41211ED087
:1042B0004FF0006343EA501043EA5111A0FB013173
:1042C0000CF00040B1F5000F3EBF490041EAD37148
:1042D0005B0040EA010062F17F02FD2A1DD8B3F1C4
:1042E000004F40EBC25008BF20F00100704790F033
:1042F000000F0CF0004C08BF49024CEA502040EA85
:1043000051207F3AC2BFD2F1FF0340EAC25070474A
:1043100040F400004FF00003013A5DDC12F1190F88
:10432000DCBF00F000407047C2F10002410021FAFA
:1043300002F1C2F1200200FA02FC5FEA310040F112
:10434000000053EA4C0308BF20EADC70704792F08B
:10435000000F00F0004C02BF400010F4000F013AC3
:10436000F9D040EA0C0093F0000F01F0004C02BFBE
:10437000490011F4000F013BF9D041EA0C018FE72D
:104380000CEAD15392EA0C0F18BF93EA0C0F0AD033
:1043900030F0004C18BF31F0004CD8D180EA010059
:1043A00000F00040704790F0000F17BF90F0004FF2
:1043B000084691F0000F91F0004F14D092EA0C0FD4
:1043C00001D142020FD193EA0C0F03D14B0218BF67
:1043D000084608D180EA010000F0004040F0FE40AD
:1043E00040F40000704740F0FE4040F44000704749
:1043F0004FF0FF0C1CEAD0521EBF1CEAD15392EAC8
:104400000C0F93EA0C0F69D0A2EB030280EA010CB7
:1044100049024FEA402037D04FF0805343EA111150
:1044200043EA10130CF000408B4238BF5B0042F1AE
:104430007D024FF4000C8B4224BF5B1A40EA0C0053
:10444000B3EB510F24BFA3EB510340EA5C00B3EB85
:10445000910F24BFA3EB910340EA9C00B3EBD10F73
:1044600024BFA3EBD10340EADC001B0118BF5FEAC5
:104470001C1CE0D1FD2A3FF650AF8B4240EBC250EE
:1044800008BF20F0010070470CF0004C4CEA5020AF
:104490007F32C2BFD2F1FF0340EAC250704740F4FE
:1044A00000004FF00003013A37E792F0000F00F0F0
:1044B000004C02BF400010F4000F013AF9D040EA6E
:1044C0000C0093F0000F01F0004C02BF490011F402
:1044D000000F013BF9D041EA0C0195E70CEAD153FA
:1044E00092EA0C0F08D142027FF47DAF93EA0C0FE1
:1044F0007FF470AF084676E793EA0C0F04D14B02C5
:104500003FF44CAF08466EE730F0004C18BF31F076
:10451000004CCAD130F000427FF45CAF31F0004370
:104520007FF43CAF5FE700BF4FF0FF3C06E000BF09
:104530004FF0010C02E000BF4FF0010C4DF804CD2C
:104540004FEA40024FEA41037FEA226C18BF7FEA3C
:10455000236C11D001B052EA530C18BF90EA010F3E
:1045600058BFB2EB030088BFC81738BF6FEAE170CD
:1045700018BF40F0010070477FEA226C02D15FEA69
:10458000402C05D17FEA236CE4D15FEA412CE1D0D5
:104590005DF8040B704700BF844608466146FFE79C
:1045A0000FB5FFF7C9FF002848BF10F1000F0FBD7E
:1045B0004DF808EDFFF7F4FF0CBF012000205DF877
:1045C00008FB00BF4DF808EDFFF7EAFF34BF0120FC
:1045D00000205DF808FB00BF4DF808EDFFF7E0FF95
:1045E00094BF012000205DF808FB00BF4DF808EDE6
:1045F000FFF7D2FF94BF012000205DF808FB00BF49
:104600004DF808EDFFF7C8FF34BF012000205DF82A
:1046100008FB00BF4AF6E463C2F200031868704763
:1046200070B54AF6B0664AF6B065C2F20006C2F24C
:104630000005761BB61006D0002455F8243001344E
:104640009847A642F9D84AF6B0654AF6B466C2F26F
:104650000005C2F20006761B06F01EFCB61006D05E
:10466000002455F8243001349847A642F9D870BD8B
:10467000032AC9B230B407D822B10023C154013390
:104680009342FBD130BC704700EB020C034601E0C3
:1046900003F8011C03F003041A460133002CF7D180
:1046A0004FF00133C2EB0C0403FB01F31FE042F8AF
:1046B000403C42F83C3C42F8383C42F8343C42F83A
:1046C000303C42F82C3C42F8283C42F8243C42F86A
:1046D000203C42F81C3C42F8183C42F8143C42F89A
:1046E000103C42F80C3C42F8083C42F8043C1546A9
:1046F00040323F2CA4F14004D9DC2A46C5EB0C041F
:1047000007E042F8103C42F80C3C42F8083C42F802
:10471000043C154610320F2CA4F11004F1DC2A469B
:10472000C5EB0C0501E042F8043C14460432032DAD
:10473000A5F10405F7DC01E004F8011B6445FBD397
:10474000A0E700BF0FB44AF6E463C2F2000310B55D
:104750001C6882B024B1A36913B9204602F008FF97
:10476000204605AC049A23468168019400F09EF827
:1047700002B0BDE8104004B0704700BF0EB410B5E1
:10478000044683B018B183690BB902F0F1FE2046EC
:1047900006AC059A23468168019400F087F803B0BF
:1047A000BDE8104003B0704730B5044689B00846F4
:1047B0000D4600F03DF84AF618430195C2F2000399
:1047C00003930290431C07930123049301AB0593C9
:1047D000022306930CB1A369EBB14AF6E4632046C9
:1047E000C2F200031B689B689A8912F4005F01BF44
:1047F00042F400529A81596E21F40052A16808BF18
:104800005A6605AA03F018F8002814BF4FF0FF30CD
:104810000A2009B030BD204602F0AAFEDDE700BF45
:104820004AF6E4630146C2F200031868BCE700BF21
:1048300020F0030110F00300C0F1000051F8043B28
:1048400000F1040C4FEACC0C6FF000021CBF22FAFE
:104850000CF213434FF0010C4CEA0C2C4CEA0C4CBC
:10486000A3EB0C0222EA030212EACC1204BF51F8B5
:10487000043B0430F4D013F0FF0F1FBF013013F4DA
:104880007F4F013013F47F0F18BF0130704700BF16
:10489000936810B5144613B95360184610BD02F062
:1048A000CBFF00236360A36010BD00BF2DE9F04F74
:1048B000ADF5AE6D83B00E4615469A46814603F0BF
:1048C000ABF900681D90B9F1000F04D0D9F8183089
:1048D000002B00F05A814AF69043C2F200039E4238
:1048E00008BFD9F8046010D04AF6B043C2F2000302
:1048F0009E4208BFD9F8086007D04AF6D043C2F2FA
:1049000000039E4208BFD9F80C60B6F80CC01FFA2D
:104910008CF313F4005F09D14CF4005C726EA6F8BE
:104920000CC01FFA8CF322F40052726613F0080FC9
:1049300001F001833269002A01F0FD8203F01A03BD
:104940000A2B00F0E080002212921A9200231C929F
:104950000DF59C641192043419920DF5A4621B9319
:1049600004320DF590632832033318920793002325
:10497000CDF84C45CDF85035CDF854352B781A1E6E
:1049800018BF0122252B0CBF002202F0010232B316
:104990002F4617F8013F1A1E18BF0122252B0CBF06
:1049A000002202F00102002AF3D1B7EB050808BF8C
:1049B0003D4614D0C4F80480DDF85035DDF85425A8
:1049C00001332560072B4244CDF85035CDF85425EE
:1049D00078DC083411983D46404411903B78002B18
:1049E0007CD06B1C4FF0FF372B204FF0200C0021A8
:1049F0004FF000020F918DF87725CDF82CA06A7842
:104A00000A915D1CA2F12003582B00F28682DFE898
:104A100013F0980284028402A402840284028402B5
:104A2000840284028402AD02BA028402C102CA0274
:104A30008402E702F002F002F002F002F002F0025B
:104A4000F002F002F00284028402840284028402F2
:104A50008402840284028402840204032603840202
:104A6000260384028402840284026A03840284028C
:104A70008104840284028402840284021404840275
:104A800084022F0484028402840284028402840249
:104A900084028402840284024F04650426032603F0
:104AA0002603730365048402840279038402850368
:104AB0009603AD030A048402CC038402F403840247
:104AC0008402C0000DF5A862484631460C32FFF75B
:104AD000DFFE58B90DF59C6404347BE7DDF85435EE
:104AE000002B41F092810023CDF85035B38913F0AB
:104AF000400F02D04FF0FF30119011985FB00DF5CC
:104B0000806DBDE8F08FB6F90E30002BFFF61BAFBD
:104B1000376A2CF0020CD6F828E00DF58E64ADF85B
:104B200088C40C34B6F80EC02A465346484621467F
:104B30001FADCDF89C740027CDF88C54CDF87C5473
:104B40004FF48065CDF8A4E4ADF88AC4CDF8905454
:104B5000CDF89474CDF88454FFF7A8FE0028119086
:104B600009DB2146484602F093FB1199B84218BF71
:104B70004FF0FF311191BDF8883413F0400FBCD0D5
:104B8000B38943F04003B381B7E7484602F0F0FC35
:104B9000A1E60A984AF6604CC2F2000C169210F098
:104BA000200FCDF864C000F06E830B99CB1D23F06D
:104BB000070303F108020B92D3E900AB5AEA0B0298
:104BC0000A9B0CBF00220122134240F06B86022395
:104BD0004FF000018DF87715002FA2BFDDF828C037
:104BE0002CF0800CCDF828C0002F18BF42F0010235
:104BF000002A00F01E84012B00F0DE85022B00F05D
:104C0000C185189913914FEADA084FEADB0C48EA9C
:104C10004B780AF00700E346C24630305AEA0B02EE
:104C200001F8010DEFD1DDF828C013911CF0010F40
:104C300040F08C861898401A10909DF87735109A9D
:104C40001797BA42B8BF3A460C9213B10C9A013288
:104C50000C920A9B0A9813F0020315931EBFDDF80D
:104C600030C00CF1020CCDF830C010F0840014906C
:104C70004DD10F990C9A8F1A002F48DD102F4AF64C
:104C80001C48D8BFC2F2000830DDC2F200080DF5A2
:104C9000A86B43464FF0100AA8460BF10C0B1D46BB
:104CA00002E0103F102F1EDDC4F804A0DDF85035DF
:104CB000DDF85425013325601032072BCDF854253B
:104CC00004F10804CDF85035EBDD0DF59C64484641
:104CD00031465A460434FFF7DBFD00287FF406AF67
:104CE000103F102FE0DC2B46454698466760DDF804
:104CF0005035C4F800805A1CDDF85435CDF85025E5
:104D0000DB19072ACDF8543500F38A8508349DF85D
:104D100077359BB101236360DDF850350DF5AE6248
:104D200007322260DDF854250133CDF850350132C9
:104D3000072BCDF8542500F3B6840834159B9BB19E
:104D400002236360DDF850350DF5AE620432226057
:104D5000DDF854250133CDF850350232072BCDF85C
:104D6000542500F3AF840834DDF850C0BCF1800F47
:104D700000F07683179B109A9F1A002F43DD102FA7
:104D8000DFF88C8B2EDD43460DF5A86BA8464FF05F
:104D9000100A0BF10C0B1D4602E0103F102F1EDD18
:104DA000C4F804A0DDF85035DDF854250133256042
:104DB0001032072BCDF8542504F10804CDF85035F6
:104DC000EBDD0DF59C64484631465A460434FFF746
:104DD0005FFD00287FF48AAE103F102FE0DC2B46E9
:104DE000454698466760DDF85035DDF854250133B7
:104DF000C4F80080D219072BCDF85425CDF85035D2
:104E000000F342840834DDF828C01CF4807F40F0B1
:104E10009D82109813996060DDF85035DDF85425B7
:104E2000013321601218072BCDF85035D8BF04F19B
:104E30000803CDF8542500F39B830A9911F0040F61
:104E400055D00F9ADDF830C0CCEB0207002F4EDDB5
:104E5000102F4AF61C48D8BFC2F200082EDDC2F25D
:104E600000080DF5A86A42461024A8460AF10C0A6B
:104E7000154602E0103F102F1DDD5C60DDF8502567
:104E8000DDF8541501321D601031072ACDF8541594
:104E900003F10803CDF85025ECDD48463146524673
:104EA000FFF7F6FC0DF59C63043300287FF41EAE7B
:104EB000103F102FE1DC2A46454690465F60DDF842
:104EC0005025C3F80080DDF854350132CDF8502567
:104ED000FB18072ACDF854350BDD0DF5A8624846BE
:104EE00031460C32FFF7D4FC00287FF4FFADDDF82B
:104EF000543511980C9A0F998A42ACBF801840180B
:104F00001190002B40F042830DF59C640023DDF8E6
:104F10002CA00434CDF8503530E51692002A3FF429
:104F2000DDAD0DF5A46001234FF0000C04300C93AF
:104F30008DF824258DF877C51390109300211791D3
:104F400087E69DF87735002B40F02B850B992B4693
:104F50008DF877C52A780B9153E50B990A9B43F09E
:104F600001030A932B462A780B914AE50B990B9A79
:104F700009680F91111D0F9B002BC0F280872A78C2
:104F80002B460B913DE50B992B468DF877052A783A
:104F90000B9136E50B990A9B43F004030A932B46C9
:104FA0002A780B912DE52B4613F8012B2A2A01F0C4
:104FB000CD80A2F13001092901F2378002350027A6
:104FC00015F8012C07EB87072B46013501EB470746
:104FD000A2F130010929F3D947EAE7771D4611E527
:104FE0000B992B460A9A42F080020A922A780B917A
:104FF00007E5A2F130014FF000082B4608EB8808C6
:1050000013F8012B01EB4808A2F130011D460929D4
:10501000F3D9CDF83C801D46F4E40A9B169243F088
:1050200010030A93DDF828C01CF0200F00F05D810A
:105030000B98C31D23F0070303F108010B91D3E97B
:1050400000ABBAF1000F7BF10002C0F29B845AEA78
:105050000B034FF001030CBF00220122BCE50A98AC
:10506000169210F0080F00F0ED840B99CB1D23F081
:10507000070303F108020B92D3F80480D3F800A0D1
:10508000CDF86C80CDF848A05046414604F030F988
:105090008346002800F099855046002200234146AF
:1050A000FEF774FF002840F00B859DF877354AF62F
:1050B00054414AF650421698C2F20001C2F2000270
:1050C0004FF0030C4728D8BF114613910A99CDF829
:1050D00030C021F08001CDF840C00A914FF0000CA3
:1050E000CDF85CC0B1E50B990A9B43F008030A9325
:1050F0002B462A780B9184E40A9941F040010A91E9
:105100000B993CE72A786C2A00F055850B990A9B8D
:105110000B9143F010030A932B4672E40A9A12F0A3
:10512000200F00F082840B98119A036810464FEA12
:10513000E0710B9AC3E9000102F1040A1EE4169221
:105140000A9A12F0200300F0EF800B9BDA1D002377
:1051500022F0070202F1080CCDF82CC0D2E900AB16
:105160005AEA0B000CBF0022012231E50B9878218E
:10517000DDF828C0169103684AF660408DF8751571
:1051800030218DF874154CF0020C0B991A1E18BFC3
:105190000122C2F200009A464FF0000B0431CDF814
:1051A00028C0199002230B9112E50B9B16924FF029
:1051B0000002181D8DF877251B680B901393002BA8
:1051C00000F0C686002F1398C0F28F8600213A4661
:1051D00003F0A6F80346002800F0F58613981B1A82
:1051E0001093BB4240F3BE851097002127EAE77772
:1051F0009DF877350C97179127E5DDF828C01692B2
:105200001CF0200F23D00B980123C21D22F00702AF
:1052100002F108010B91D2E900AB5AEA0B020CBF74
:1052200000220122D4E40A992B4641F020010A9180
:105230000B992A780B91FFF7E4BB0A9B169243F077
:1052400010030A93DDF828C01CF0200FDBD10A9B65
:1052500013F0100F00F0D5830B980123021D0B9261
:1052600001680A1E18BF01228A464FF0000BAFE406
:105270000A9816924AF63C4210F0200FC2F2000241
:1052800019927FF492AC0A9B13F0100F40F01A832E
:105290000A9A12F0400F00F015830B9B03F1040CE7
:1052A000CDF82CC0B3F800A0D2464FF0000B85E437
:1052B00016920DF5A4610B9A4FF0010C4FF000000F
:1052C0000431CDF830C0136804328DF877050B92A5
:1052D0001391CDF840C08DF824352FE6DDF828C0B5
:1052E00016921CF0200F7FF4A3AE0A9A12F0100F52
:1052F00040F0F1820A9A12F0400F00F0EC820B9B12
:1053000003F1040CCDF82CC0B3F900A0D2464FEA4B
:10531000EA7B96E60A99169241F010010A910A9AE0
:1053200012F020037FF411AF0A9911F0100200F07F
:1053300054830B9A02F1040CCDF82CC011680A1E9C
:1053400018BF01228A464FF0000B41E4169A652AE5
:1053500040F328811298002200231B99FEF70CFECF
:10536000002800F0BE8101236360DDF850254AF675
:105370007C43C2F200032360DDF854350132CDF8DE
:1053800050250133072ACDF85435D8BF04F108035E
:1053900000F39B83DDF870251A98824204DB0A999A
:1053A00011F0010F3FF449AD01225A60DDF850259C
:1053B000DDF8541501321D980131072ACDF8541536
:1053C0001860CDF8502500F35F8508331A994F1EF9
:1053D000002F7FF732AD102FDFF8348540F3EA82DB
:1053E00042460DF5A86AA84610240AF10C0A154693
:1053F00003E0103F102F40F3DA825C60DDF85025A7
:10540000DDF8541501321D601031072ACDF854150E
:1054100003F10803CDF85025EBDD484631465246EE
:10542000FFF736FA0DF59C6304330028E1D0FFF74F
:105430005DBB7BB90A9911F0010F0BD00DF5A46289
:10544000302304328DF84B35273201231392109309
:10545000FFF7F3BB1898002110911390FFF7EDBBF5
:105460000F980C99471A002F7FF784AC102FDFF8A4
:10547000A0842EDD43460DF5A86BA8464FF0100A18
:105480000BF10C0B1D4602E0103F102F1EDDC4F87F
:1054900004A0DDF85035DDF85425013325601032C5
:1054A000072BCDF8542504F10804CDF85035EBDD79
:1054B0000DF59C64484631465A460434FFF7E8F936
:1054C00000287FF413AB103F102FE0DC2B4645463D
:1054D00098466760DDF85035C4F800805A1CDDF846
:1054E0005435CDF85025DB19072ACDF8543500F393
:1054F0003A8208343EE413996360DDF85025216058
:10550000DDF854150132CDF85025CB18072ACDF817
:10551000543500F3498508341D9A0123DDF8707570
:105520006360DDF850352260DDF854250133CDF895
:1055300050350132072BCDF85425D8BF04F10803AC
:1055400000F323851398DDF87025C7191A981F609A
:10555000811A5960DDF854158A1ADDF850151218B1
:10556000CDF854250131CDF85015072940F332828A
:105570000DF5A862484631460C32FFF789F900283C
:105580007FF4B4AA0DF59C63043356E40DF5A862CC
:10559000484631460C32FFF77BF900283FF4B4ACA3
:1055A000FFF7A4BA1A9901294CDD01236360DDF8E5
:1055B0005035DDF85425013313980132072BCDF80F
:1055C00054252060CDF8503500F3B2810834012312
:1055D0006360DDF85035DDF8542501331D99013243
:1055E000072BCDF854252160CDF8503500F392817A
:1055F00008341298002200231B99FEF7BDFC0028F6
:1056000040F01D811A9B13985A1E6260DDF85035D8
:10561000411C2160DDF854150133CDF850358A184E
:10562000072BCDF8542521DC08341C9B0DF5AC620A
:105630001C9822606360DDF85035DDF85425013395
:10564000FFF7F0BB0A9A12F0010FAED1139A0123B3
:105650006360DDF850352260DDF854250133CDF864
:1056600050350132072BCDF85425DDDD0DF5A8624C
:10567000484631460C32FFF70BF900287FF436AA72
:105680000DF59C640434D0E70DF5A8624846314618
:105690000C32FFF7FDF800287FF428AA0DF59C6472
:1056A0000434FFF7B0BB0DF5A862484631460C3212
:1056B000FFF7EEF800287FF419AA0DF59C64043476
:1056C000FFF73CBB0DF5A862484631460C32FFF7A8
:1056D000DFF800287FF40AAA0DF59C640434FFF774
:1056E00043BBDDF87035002B40F3FD811A998B42E6
:1056F000FFF601AF139A6160DDF850352260DDF8E6
:1057000054250133CDF850355218072BCDF85425C8
:10571000D8BF04F1080300F32984DDF870451A9816
:10572000241A002C40F3B381102CDFF8E48140F3FD
:105730009D8142460DF5A86AA84610270AF10C0A79
:10574000154603E0103C102C40F38D815F60DDF8BE
:105750005025DDF8541501321D601031072ACDF8AF
:10576000541503F10803CDF85025EBDD48463146CA
:105770005246FFF78DF80DF59C6304330028E1D005
:10578000FFF7B4B9189A1998134613920AF00F024A
:105790004FEA1A1141EA0B714FEA1B1C825C8A46E0
:1057A000E3465AEA0B0C03F8012DEFD11898139336
:1057B000C01A1090FFF741BA09220023524573EB3B
:1057C0000B00DDF860801FD223464446B8461F46D2
:1057D000504659460A22002304F030F9002350466F
:1057E000594602F1300C0A2204F801CD04F026F9E2
:1057F0000922002382468B46524573EB0B03E7D305
:105800003B464746A0461C4608F1FF300AF1300AE5
:10581000139008F801AC1899091A1091FFF70DBA06
:105820000DF5A862484631460C32FFF731F80028E2
:105830007FF45CA90DF59C640434FFF768BA1A99EB
:105840004F1E002F7FF7F1AE102FDFF8C4804EDD22
:1058500043460DF5A86BA8464FF0100A0BF10C0B50
:105860001D4602E0103F102F3EDDC4F804A0DDF815
:105870005035DDF85425013325601032072BCDF863
:10588000542504F10804CDF85035EBDD0DF59C648A
:10589000484631465A460434FEF7FAFF0028E1D064
:1058A000FFF724B916983021DDF828C00122022321
:1058B0008DF874154CF0020C8DF87505CDF828C0E4
:1058C000FFF786B90B98011D03680B919A464FF0BC
:1058D000000BFFF773B90B98011D03680B919A46F3
:1058E0004FEAEA7BFFF7ADBB2B464546984667601B
:1058F000DDF85035DDF854250133C4F80080D219A5
:10590000072BCDF85425CDF850357FF78DAEADE699
:105910002CAC00200DF5A862484631460C32FEF74B
:10592000B7FF00287FF4E2A80DF59C64043460E61C
:105930000DF5A862484631460C32FEF7A9FF002853
:105940007FF4D4A80DF59C64043440E6302800F0C0
:10595000EC821398302300F8013D18991390091A2E
:105960001091FFF76AB90DF5A862484631460C322E
:10597000FEF78EFF00287FF4B9A80DF59C6404346F
:10598000FFF7F8B9DAF1000A6BEB4B0B2D235AEA5B
:105990000B0C8DF877350CBF002201220123FFF795
:1059A0001BB90B992B462A780B91FFF72AB82A4688
:1059B000454690465F60DDF85025DDF8541501320C
:1059C000C3F80080C919072ACDF85415CDF8502521
:1059D0003FF7CEAD0833FFF730BA0A9810F0400316
:1059E00000F0ED810B9913460A1D0B92B1F800A04F
:1059F000BAF1000218BF0122D2464FF0000BFFF7A8
:105A0000E7B80A9B13F0400F00F0CC810B980123FC
:105A1000011D0B91B0F800A0BAF1000218BF0122DD
:105A2000D2464FF0000BFFF7D3B80A9B13F0100FCC
:105A300000F0A4810B98119900F1040A0368196021
:105A4000FEF79CBF0B98C31D23F0070303F1080169
:105A50000B91D3F80480D3F800A0CDF86C80CDF87A
:105A600048A0FFF711BB2A46454690465C60DDF82A
:105A70005025DDF854150132C3F800800919072AB2
:105A8000CDF85415CDF8502500F3EA8208330A9971
:105A900011F0010F3FF4D1A901225A60DDF8502521
:105AA000DDF8541501321D980131072ACDF854153F
:105AB0001860CDF850253FF75BAD0833FFF7BDB94F
:105AC0002D238DF87735FFF7F2BA0DF5A862484619
:105AD00031460C32FEF7DCFE00287FF407A80DF5F6
