:020000042000DA
:100000000000012099020020090300200B030020BA
:100010000D0300200F03002011030020000000004A
:10002000000000000000000000000000130300209A
:100030001503002000000000170300201903002012
:100040001B0300201D0300201F03002021030020AC
:10005000230300202503002027030020290300207C
:100060002B0300202D03002081160020AD16002058
:100070003303002035030020C12400203903002071
:100080003B030020ED2400203F030020410300201B
:1000900043030020450300204703002049030020BC
:1000A0004B030020000000000000000000000000E2
:1000B0000000000000000000000000004D030020D0
:1000C000F90D0020210E00205303002055030020CD
:1000D00057030020590300205B0300205D0300202C
:1000E0005F030020610300206303002065030020FC
:1000F00067030020690300206B0300206D030020CC
:100100006F0300207103002073030020750300209B
:1001100077030020790300207B0300207D0300206B
:100120007F0300208103002083030020850300203B
:1001300087030020890300208B0300208D0300200B
:100140008F030020910300209303002095030020DB
:1001500097030020990300209B0300209D030020AB
:100160009F030020A1030020A3030020A50300207B
:10017000A7030020A9030020AB030020AD0300204B
:10018000AF030020B1030020B3030020B50300201B
:10019000B7030020B9030020BB030020BD030020EB
:1001A000BF030020C1030020C3030020C5030020BB
:1001B000C7030020C9030020CB030020CD0300208B
:1001C000CF030020D1030020D3030020D50300205B
:1001D000D7030020D9030020DB030020DD0300202B
:1001E000DF030020E1030020E3030020E5030020FB
:1001F000E7030020E9030020EB030020ED030020CB
:10020000EF030020F1030020F3030020F50300209A
:10021000F7030020F9030020FB030020FD0300206A
:10022000FF03002001040020030400200504002037
:1002300007040020090400200B0400200D04002006
:100240000F040020110400201304002015040020D6
:1002500017040020190400201B0400201D040020A6
:100260001F04002021040020230400202504002076
:1002700027040020290400202B0400202D04002046
:100280002F04002031040020330400203504002016
:100290003704002039040020684880476848002857
:1002A0000BD168486849694A884206D091421CBF10
:1002B00050F8043B41F8043BF8D165486549664A6B
:1002C000884206D091421CBF50F8043B41F8043BE1
:1002D000F8D162486249634A914218BF41F8040B61
:1002E000FAD1000000000000000000000000000043
:1002F000DFF874010FF2030E00474FF000004FF0DB
:100300000001DFF868F1FEE7FEE7FEE7FEE7FEE743
:10031000FEE7FEE7FEE7FEE7FEE7FEE7FEE7FEE7B5
:10032000FEE7FEE7FEE7FEE7FEE7FEE7FEE7FEE7A5
:10033000FEE7FEE7FEE7FEE7FEE7FEE7FEE7FEE795
:10034000FEE7FEE7FEE7FEE7FEE7FEE7FEE7FEE785
:10035000FEE7FEE7FEE7FEE7FEE7FEE7FEE7FEE775
:10036000FEE7FEE7FEE7FEE7FEE7FEE7FEE7FEE765
:10037000FEE7FEE7FEE7FEE7FEE7FEE7FEE7FEE755
:10038000FEE7FEE7FEE7FEE7FEE7FEE7FEE7FEE745
:10039000FEE7FEE7FEE7FEE7FEE7FEE7FEE7FEE735
:1003A000FEE7FEE7FEE7FEE7FEE7FEE7FEE7FEE725
:1003B000FEE7FEE7FEE7FEE7FEE7FEE7FEE7FEE715
:1003C000FEE7FEE7FEE7FEE7FEE7FEE7FEE7FEE705
:1003D000FEE7FEE7FEE7FEE7FEE7FEE7FEE7FEE7F5
:1003E000FEE7FEE7FEE7FEE7FEE7FEE7FEE7FEE7E5
:1003F000FEE7FEE7FEE7FEE7FEE7FEE7FEE7FEE7D5
:10040000FEE7FEE7FEE7FEE7FEE7FEE7FEE7FEE7C4
:10041000FEE7FEE7FEE7FEE7FEE7FEE7FEE7FEE7B4
:10042000FEE7FEE7FEE7FEE7FEE7FEE7FEE7FEE7A4
:10043000FEE7FEE7FEE7FEE7FEE7000021270020DB
:1004400000000000000000200000002040420020CA
:1004500040420020404200204843002000000000AD
:1004600048430020C84500201536002035130020E1
:1004700044F24833C2F200031A780AB90120187016
:10048000704700BF44F24020C2F2000008B5036884
:100490002BB140F20003C0F2000303B1984708BD3E
:1004A00080B483B000AF0346FB804EF20013CEF25F
:1004B0000003B7F906204FEA5212F98801F01F0134
:1004C0004FF0010000FA01F143F8221007F10C0788
:1004D000BD4680BC704700BF80B483B000AF034608
:1004E000FB804EF20013CEF20003B7F906204FEA6C
:1004F0005212F98801F01F014FF0010000FA01F1DA
:1005000002F1200243F8221007F10C07BD4680BC1F
:10051000704700BF80B586B002AF786039607B68F5
:100520001A783B681B783A737B7307F10C034FF022
:100530000002009244F25450C2F200004FF06901F0
:100540001A464FF0020301F0D5F944F25450C2F2BA
:1005500000004FF0640101F0E1FA07F11007BD4619
:1005600080BD00BF80B586B004AF786039603B685D
:1005700000934FF0800301934FF00003029344F285
:100580005450C2F200004FF069017A684FF0010345
:1005900001F02AFA44F25450C2F200004FF0640114
:1005A00001F0BCFA07F10807BD4680BD80B582B0F6
:1005B00000AF4FF001033B714FF03F033B7007F179
:1005C00004023B4610461946FFF7A4FF07F108074F
:1005D000BD4680BD80B582B000AF4FF000033B71D7
:1005E0004FF000033B7007F104023B4610461946EA
:1005F000FFF790FF07F10807BD4680BD80B500AF4B
:10060000FFF7D4FFFFF7E6FF80BD00BF80B584B0E1
:1006100000AF02460B46FA71BB71FB794FEA032229
:10062000BB7942EA0303FB60FB7903F00803002B6C
:1006300005D0FB686FEA03536FEA1353FB60F86859
:1006400002F0C8FD03461846044902F017FE0346AF
:10065000184607F11007BD4680BD00BF0000803E70
:10066000B0B586B000AF786039604FF00003FB6032
:100670004FF000033B614FF007037B614FF0000335
:10068000FB602EE0FB68002B0BD0FB6803F00F0330
:10069000002B06D17B6903F1FF337B614FF0000330
:1006A0003B613B694FEA43123B6802EB03047D69FF
:1006B000FB6803F101027B6813441A78F9687B68D0
:1006C0000B441B7810461946FFF7A0FF034644F879
:1006D00025303B6903F101033B61FB6803F1020331
:1006E000FB60FB687F2BCDDD07F11807BD46B0BD71
:1006F00090B587B000AF78601F4BFB604FF00003F0
:100700003B612FE04FF000037B6124E03B694FEA3F
:1007100043127B6813447A6953F822304FF0000289
:1007200014461846F96802F065FF0346002B02D014
:100730004FF001031C46E3B2002B08D03B694FEA9F
:1007400043127B6813447A6953F82230FB607B695B
:1007500003F101037B617B69072BD7DD3B6903F163
:1007600001033B613B69072BCCDDFB68184607F1B1
:100770001C07BD4690BD00BF0000000080B485B0DE
:1007800000AF78604FF00003FB600BE0FB684FEABE
:1007900083027B6813444FF000021A60FB6803F188
:1007A0000103FB60FB68172BF0DD07F11407BD4662
:1007B00080BC704780B584B000AF7860786802F084
:1007C00005FD03461846074902F00CFE0346FB6090
:1007D000F868054902F006FE0346184607F11007BF
:1007E000BD4680BD0000C84200006042000000001D
:1007F00090B583B000AFC7E900010AE0D7E9000176
:1008000021A3D3E9002301F097FF02460B46C7E975
:1008100000234FF000031C46D7E900014FF000020F
:100820004FF0000302F0ACFB0346002B02D04FF068
:1008300001031C46E3B2002BE0D10AE0D7E9000136
:1008400011A3D3E9002301F075FF02460B46C7E967
:1008500000234FF000031C46D7E900010AA3D3E9A7
:10086000002302F0A1FB0346002B02D04FF001034E
:100870001C46E3B2002BE1D1D7E90023104619460C
:1008800007F10C07BD4690BD0000000000807640D7
:1008900090B583B000AFC7E900010AE0D7E90001D5
:1008A00021A3D3E9002301F047FF02460B46C7E925
:1008B00000234FF000031C46D7E900011CA3D3E935
:1008C000002302F05DFB0346002B02D04FF0010332
:1008D0001C46E3B2002BE1D10AE0D7E9000112A3E4
:1008E000D3E9002301F026FF02460B46C7E90023A7
:1008F0004FF000031C46D7E900010FA3D3E9002302
:1009000002F052FB0346002B02D04FF001031C46BD
:10091000E3B2002BE1D1D7E900231046194607F1D5
:100920000C07BD4690BD00BF00000000008076406F
:1009300000000000008066C00000000000806640EB
:1009400080B588B004AF02460B46FA71BB7144F221
:100950005450C2F200004FF000014FF0000200F0CE
:1009600013FF4FF000033B73FA7907F10C0307F113
:100970000B0100914FF0010101914FF00001029134
:1009800044F25450C2F2000011461A464FF00103DF
:1009900001F02AF844F25450C2F200004FF0000176
:1009A00001F0BCF8FB7AA02B02D04FF0FF331EE021
:1009B0004FF03D033B72BB797B72FA7907F1080374
:1009C0004FF00001009144F25450C2F20000114671
:1009D0001A464FF0020300F08DFF44F25450C2F269
:1009E00000004FF0000101F099F84FF000031846A5
:1009F00007F11007BD4680BD80B586B002AFF87123
:100A0000B9717A713B71BB794FEA0313DAB27B7922
:100A10004FEA8303DBB21344DAB23B791344BB736E
:100A20004FF041033B73BB7B7B73FA7907F10C03F7
:100A30004FF00001009144F25450C2F20000114600
:100A40001A464FF0020300F055FF44F25450C2F230
:100A500000004FF0000101F061F83B7E4FEA830394
:100A6000DAB23B7F4FEA4303DBB21344DAB297F8C2
:100A700020301344FB734FF042033B72FB7B7B72CD
:100A8000FA7907F108034FF00001009144F2545045
:100A9000C2F2000011461A464FF0020300F02AFF8E
:100AA00044F25450C2F200004FF0000101F036F859
:100AB00007F11007BD4680BD80B588B004AF03467E
:100AC000FB714FF00003FB6044F2B803C2F2000375
:100AD0001B883B8107F10C01FA7907F108030091AB
:100AE0004FF0020101914FF00101029144F2545084
:100AF000C2F2000011461A464FF0020300F074FFE4
:100B000044F25450C2F200004FF0000101F006F828
:100B1000FB68184601F05CFF02460B46104619467A
:100B20004FF000024FF0804303F5401302F0E0F86D
:100B300002460B4610461946FFF75AFE02460B4680
:100B40001046194607F11007BD4680BD80B586B036
:100B500000AF13460246FA710A46BA717B717B797F
:100B6000002B13D0FB791846FFF7A6FF44F2503351
:100B7000C2F20003C3E90001BB791846FFF79CFFEE
:100B800044F25833C2F20003C3E90001BB791846AE
:100B9000FFF792FF44F25833C2F20003D3E9002377
:100BA00001F0C8FD02460B4610461946FFF770FEDD
:100BB00002460B46C7E90223FB791846FFF77CFF84
:100BC00044F25033C2F20003D3E9002301F0B2FD36
:100BD00002460B4610461946FFF75AFE02460B46E0
:100BE000C7E90423D7E90201D7E9042301F0A2FDF4
:100BF00002460B4610461946FFF74AFE02460B46D0
:100C00001046194607F11807BD4680BD80B483B071
:100C100000AF0346FB71FB794FEAD313DBB21A46F0
:100C2000FB7903F040034FEA6313DBB242EA0303AC
:100C3000DAB2FB7903F020034FEAE303DBB242EAC6
:100C40000303DAB2FB7903F010034FEA6303DBB26C
:100C500042EA0303DAB2FB7903F008034FEA4303E5
:100C6000DBB242EA0303DAB2FB7903F004034FEA92
:100C7000C303DBB242EA0303DAB2FB7903F00203F7
:100C80004FEA4313DBB242EA0303DAB2FB794FEADD
:100C9000C313DBB242EA0303DBB2DBB2184607F14F
:100CA0000C07BD4680BC704790B589B000AF786036
:100CB00039604FF00003FB604FF00003BB6088E039
:100CC000BB684FEAC3037A6842FA03F3DBB2184603
:100CD000FFF79CFF0346FB77386801F08BFE024666
:100CE0000B461046194602F0B7FD02460B46104669
:100CF00019463DA3D3E9002301F0D0FE02460B467E
:100D0000104619463AA3D3E9002301F015FD024627
:100D10000B46C7E904234FF000031C46D7E9040142
:100D20004FF000024FF07E5303F5E00302F046F966
:100D30000346002B02D04FF001031C46E3B2002B08
:100D400007D04FF000024FF07E5303F5E003C7E9F0
:100D500004234FF000031C46D7E904014FF00002C2
:100D60004FF0000302F00CF90346002B02D04FF0C5
:100D700001031C46E3B2002B05D04FF000024FF0F8
:100D80000003C7E90423FB7F184601F021FE024659
:100D90000B4610461946D7E9042301F07FFE0246B0
:100DA0000B461046194602F03BF90346DBB21846E3
:100DB000FFF72CFF03461A46BB684FEAC30302FA4B
:100DC00003F3FA6842EA0303FB60BB6803F1010323
:100DD000BB60BB68022B7FF673AFFB68184607F158
:100DE0002407BD4690BD00BF736891ED7C3FD5BF21
:100DF0005C8FC2F5285C014080B500AF44F27033CF
:100E0000C2F20003D3E9000144F28843C2F20003B6
:100E1000C3E900014FF0000001F03EFC80BD00BFBF
:100E200080B500AF44F26433C2F200031B7803F1D3
:100E30000103DAB244F26433C2F200031A7044F2DE
:100E40006433C2F200031A784AF6AB23CAF6AA2327
:100E5000A3FB02134FEA53010B464FEA43030B4433
:100E6000C3EB0203DAB244F26433C2F200031A7035
:100E70004FF0010001F010FC80BD00BF80B483B0D2
:100E800000AF13460246FA710A46BA717B71FB79CC
:100E90004FEA0342BB794FEA032342EA03027B791C
:100EA00042EA0303184607F10C07BD4680BC7047B1
:100EB00090B583B000AF4FF000037B603DE044F29B
:100EC0006033C2F200031B687A689A4225DB44F261
:100ED0006033C2F200031B6803F102027B689A428E
:100EE0001BDD44F24423C2F200031A687B684FEA18
:100EF000830302EB030444F28043C2F200031B6845
:100F00001A4644F26C33C2F200031B6810461946BD
:100F1000FFF7CAFE034623600BE044F24423C2F20B
:100F200000031A687B684FEA830313444FF0000202
:100F30001A607B6803F101037B607B68172BBEDDC1
:100F400007F10C07BD4690BD80B483B000AF4FF0F1
:100F500000037B6012E044F24423C2F200031A68EB
:100F60007B684FEA83031A4444F28043C2F20003D1
:100F70001B6813607B6803F101037B607B68172BA0
:100F8000E9DD07F10C07BD4680BC704798B500AF9E
:100F900044F27830C2F20000FFF7AAFB03464FF09C
:100FA0000002144618468F4902F024FB0346002B2A
:100FB00002D04FF001031C46E3B2002B07D044F2ED
:100FC0008043C2F200034FF47F421A6064E044F2AF
:100FD0007833C2F20003DB6E4FF00002144618466D
:100FE000814902F007FB0346002B02D04FF00103BA
:100FF0001C46E3B2002B15D144F27833C2F2000351
:10100000D3F890304FF0000214461846764902F0AB
:10101000F1FA0346002B02D04FF001031C46E3B265
:10102000002B32D044F27833C2F20003DB6E4FF073
:101030000002144618466D4902F0BEFA0346002B22
:1010400002D04FF001031C46E3B2002B15D144F24D
:101050007833C2F20003D3F890304FF00002144608
:101060001846624902F0A8FA0346002B02D04FF05E
:1010700001031C46E3B2002B07D044F28043C2F2C6
:1010800000034FF6FF721A6006E044F28043C2F29A
:1010900000034FF0FF021A6044F24C23C2F2000337
:1010A0004FF000021A7044F27843C2F20003D3E911
:1010B00000234FF000010C46104619464FF0000285
:1010C0004FF0404303F5840301F05AFF0346002B21
:1010D00002D04FF001031C46E3B2002B1BD144F2B7
:1010E0007843C2F20003D3E900234FF000010C461D
:1010F000104619464FF000024FF0804303F5840379
:1011000001F052FF0346002B02D04FF001031C46B2
:10111000E3B2002B2BD044F27843C2F20003D3E9B0
:1011200000234FF000010C46104619464FF0000214
:101130004FF0000301F024FF0346002B02D04FF0D4
:1011400001031C46E3B2002B02D04FF0170201E06E
:101150004FF0FF3244F26033C2F200031A6044F2EF
:101160008043C2F200034FF47F421A6029E044F248
:101170007843C2F20003D3E90023104619464FF02A
:1011800000024FF0804303F5002301F0B1FD024659
:101190000B46104619464FF000024FF0804303F50E
:1011A000201301F0C9FA02460B461046194601F019
:1011B0000FFF0346C3F1170244F26033C2F200038B
:1011C0001A6044F26833C2F200031B681846FFF746
:1011D000F1FA024644F26C33C2F200031A60FFF7E0
:1011E00067FE98BD000028420000D04100000C427C
:1011F00080B582B000AF484B3B6044F27833C2F216
:101200000003DA6E44F27833C2F200031B6F10461B
:10121000194601F02BFF03461A4644F27833C2F216
:101220000003D3F88C301046194601F01FFF034627
:101230001A4644F27833C2F20003D3F890301046D5
:10124000194601F013FF03461846344902F0CAF864
:1012500003463B604FF000037B714FF00003BB710E
:101260004FF00003FB7138682D4902F0BBF80346CC
:10127000184601F0BFFB02460B46104619464FF0D8
:1012800000024FF0804303F5B01301F055FA024617
:101290000B461046194602F05FFA02460B4610460E
:1012A000194601F0BDFE03467B7138681D4902F006
:1012B00099F80346184601F09DFB02460B4610467E
:1012C00019464FF000024FF07E5303F5E80301F09A
:1012D00031FA02460B461046194602F03DFA024624
:1012E0000B461046194601F09BFE0346BB71797907
:1012F000BA79FB79084611461A46FFF7BFFD024648
:1013000044F28043C2F200031A60FFF71DFE07F1AA
:101310000807BD4680BD00BF0000000000008040FF
:10132000000040C10000404180B400AFBD4680BC19
:10133000704700BF80B5A6B004AF44F24423C2F2A8
:1013400000031B681846FFF719FA44F26433C2F22F
:1013500000034FF000021A7001F018F94FF000007E
:101360004FF0420101F048F94FF001004FF0420107
:1013700001F042F94FF0000001F05CF94FF001007C
:1013800001F058F944F25450C2F200004FF000014D
:101390004FF0000200F0F8F9FFF730F94FF00003CA
:1013A00000934FF0000301934FF0010302934FF0BD
:1013B00028004FF000014FF002024FF00103FFF749
:1013C0001BFB4FF0000300934FF0010301934FF01C
:1013D000000302934FF029004FF002014FF0010289
:1013E0004FF00003FFF708FB4FF028004FF0090112
:1013F000FFF7A6FA4FF029004FF00901FFF7A0FA16
:1014000044F28843C2F200034FF000004FF00001A5
:10141000C3E900016FF07F0387F8843007F104020D
:101420004FF0800310464FF000011A4602F01AF9FF
:101430004FF02000FFF750F84FF02100FFF74CF875
:1014400007F1840207F1040310461946FFF78AF8F2
:1014500044F24C23C2F200031B78DBB24FF02900A8
:101460004FF028011A46FFF771FB44F28843C2F29D
:101470000003D3E9002301F05DF902460B46104654
:10148000194644F27843C2F20003C3E900014FF069
:101490002000FFF705F84FF02100FFF701F844F2B4
:1014A0007843C2F20003D3E9000144F28843C2F258
:1014B0000003D3E9002301F03FF902460B46104632
:1014C000194644F27033C2F20003C3E9000144F24A
:1014D0004823C2F200031B681A6844F26833C2F260
:1014E00000031A6007F10403184644F27831C2F28F
:1014F0000001FFF7B5F844F26433C2F200031B7831
:10150000012B06D0022B07D0002B08D1FFF73EFDA0
:1015100008E0FFF76DFE05E0FFF706FF02E0FFF7CA
:1015200035FD85E784E700BF80B483B000AF034694
:10153000FB804EF20013CEF20003B7F906204FEA0B
:101540005212F98801F01F014FF0010000FA01F179
:1015500002F1600243F8221007F10C07BD4680BC7F
:10156000704700BF80B584B000AF78607A6844F2FD
:10157000B843C2F200039A4207D07A6844F290431B
:10158000C2F200039A4200D000BE7A6844F2B84327
:10159000C2F200039A4206D07A6844F29043C2F243
:1015A00000039A4267D17B681B681B7ADBB203F0A9
:1015B0000F03FB73FB7B0C2B54D801A252F823F0D2
:1015C000F515002065160020111600206516002074
:1015D0002D160020651600204916002065160020F3
:1015E000651600206516002065160020651600208F
:1015F0002D1600207B685B6A002B00D100BE7B6843
:101600005B6A002B30D07B685B6A7868984732E071
:101610007B681B6A002B00D100BE7B681B6A002B15
:1016200024D07B681B6A7868984724E07B68DB6974
:10163000002B00D100BE7B68DB69002B18D07B68D3
:10164000DB697868984716E07B689B69002B00D1BE
:1016500000BE7B689B69002B0CD07B689B69786817
:10166000984708E000BE06E000BF04E000BF02E0CB
:1016700000BF00E000BF07F11007BD4680BD00BFFE
:10168000684620F007018D4689B500AF44F2B840A6
:10169000C2F20000FFF766FF4FF00A00FFF744FFB9
:1016A000BD46BDE889408546704700BF684620F0CA
:1016B00007018D4689B500AF44F29040C2F20000A8
:1016C000FFF750FF4FF00B00FFF72EFFBD46BDE8C0
:1016D00089408546704700BF80B483B000AF0346A1
:1016E000FB804EF20013CEF20003B7F906204FEA5A
:1016F0005212F98801F01F014FF0010000FA01F1C8
:1017000043F8221007F10C07BD4680BC704700BFAC
:1017100080B483B000AF0346FB804EF20013CEF2DC
:101720000003B7F906204FEA5212F98801F01F01B1
:101730004FF0010000FA01F102F1200243F82210FB
:1017400007F10C07BD4680BC704700BF80B483B072
:1017500000AF0346FB804EF20013CEF20003B7F950
:1017600006204FEA5212F98801F01F014FF00100E4
:1017700000FA01F102F1600243F8221007F10C07B0
:10178000BD4680BC704700BF80B584B000AF7860B4
:1017900013460A46FA70BB70BB78FB607A6844F265
:1017A000E043C2F200039A4207D07A6844F25453ED
:1017B000C2F200039A4200D000BE00F063FE03466E
:1017C000BB6078684FF000014FF0740201F04AFFEF
:1017D0007A6844F2E043C2F200039A422CD17B685B
:1017E0004FF00E025A827A6842F20003C4F20003FC
:1017F00053617A6840F20003C4F20423936142F219
:101800000003CEF2040342F20002CEF20402126B95
:1018100042F400621A634FF00E00FFF797FF42F2A6
:101820000003CEF2040342F20002CEF20402126B75
:1018300022F400621A632BE07B684FF011025A8297
:101840007A6842F20003C4F2010353617A6840F2FD
:101850000003C4F22423936142F20003CEF2040396
:1018600042F20002CEF20402126B42F480521A637A
:101870004FF01100FFF76AFF42F20003CEF20403BB
:1018800042F20002CEF20402126B22F480521A637A
:101890007B689B691A467B68DA61FB784FEA4302F2
:1018A0007B681A607B689B69FA684FEA920202F0D3
:1018B0000102DA617B689B69FA684FEA520202F022
:1018C00001025A607B689B69FA6802F001021A60A3
:1018D0007B685B697A681268D2B21A737B689B690D
:1018E0004FF001029A61B86800F0DEFD07F11007C1
:1018F000BD4680BD80B586B000AFF8607A600A460C
:10190000FA727B80FA6844F2E043C2F200039A4222
:1019100007D0FA6844F25453C2F200039A4200D04E
:1019200000BE00F0AFFD03467B61FB681B7A002B15
:1019300003D1FB684FF001021A72FB684FF00102FD
:1019400083F87220FB7A4FEA4302FB685A60FB6817
:101950004FF00002DA62FB687A681A627A88FB68E4
:101960005A62FB684FF000029A62FB684FF0010276
:1019700083F83C20FB6897F820201A74FB6893F8E2
:101980005C30DBB2012B05D1FB684FF0010283F81C
:10199000712004E0FB689B694FF001025A61FB680B
:1019A00093F87030012B11D1FB689B694FF0000256
:1019B000DA60FB685B691B79FB74FB7CDBB2FB7450
:1019C000FB685B8A1BB21846FFF7C0FEFB685B8AA8
:1019D0001BB21846FFF780FE786900F065FD07F13D
:1019E0001807BD4680BD00BF80B586B000AFF86067
:1019F0007A600A46FA727B80FA6844F2E043C2F2E7
:101A000000039A4207D0FA6844F25453C2F200032A
:101A10009A4200D000BE7B88002B00D100BE7B68BC
:101A2000002B00D100BEBB8C002B00D100BE3B6A56
:101A3000002B00D100BEBB8C002B6AD07B88002B12
:101A400067D000F01FFD03467B61FB681B7A002B0B
:101A500003D1FB684FF003021A72FB684FF00302D8
:101A600083F87220FB7A4FEA4302FB685A60FB68F6
:101A70004FF00002DA62FB687A681A627A88FB68C3
:101A80005A62FB684FF000029A62FB683A6A1A6376
:101A9000BA8CFB685A63FB684FF000029A63FB68DC
:101AA0004FF0010283F83C20FB6897F828201A7455
:101AB000FB6893F85C30DBB2012B05D1FB684FF07B
:101AC000010283F8712004E0FB689B694FF001027A
:101AD0005A61FB6893F87030012B11D1FB689B6948
:101AE0004FF00002DA60FB685B691B79FB74FB7CDA
:101AF000DBB2FB74FB685B8A1BB21846FFF726FE5D
:101B0000FB685B8A1BB21846FFF7E6FD786900F0B8
:101B1000CBFC07F11807BD4680BD00BF80B485B07F
:101B200000AF786039607A6844F2E043C2F20003A3
:101B30009A4207D07A6844F25453C2F200039A42A0
:101B400000D000BE7B683A681A647B6893F83C302A
:101B5000FB73FB7B012BF8D0FB7B184607F11407C6
:101B6000BD4680BC704700BF80B483B000AF7860D2
:101B70007B6893F86830002B04D07B689B694FF03A
:101B800001029A6007F10C07BD4680BC704700BF98
:101B900080B584B000AF78604FF00103BB737A6802
:101BA00044F2E043C2F200039A4207D07A6844F25A
:101BB0005453C2F200039A4200D000BE7B685B69B6
:101BC0001B79FB72FB7ADBB2A3F10803D02B00F286
:101BD0001C8401A252F823F01D1F00200B240020BA
:101BE0000B2400200B2400200B2400200B240020B9
:101BF0000B2400200B2400201D1F00200B2400209C
:101C00000B2400200B2400200B2400200B24002098
:101C10000B2400200B240020C11F00200B240020D7
:101C20000B2400200B2400200B2400200B24002078
:101C30000B2400200B2400209D1F00200B240020DB
:101C40000B2400200B2400200B2400200B24002058
:101C50000B2400200B240020C11F00200B24002097
:101C60000B2400200B2400200B2400200B24002038
:101C70000B2400200B240020552000200B240020E2
:101C80000B2400200B2400200B2400200B24002018
:101C90000B2400200B240020911F00200B24002087
:101CA0000B2400200B2400200B2400200B240020F8
:101CB0000B2400200B240020792000200B2400207E
:101CC0000B2400200B2400200B2400200B240020D8
:101CD0000B2400200B240020C92000200B2400200E
:101CE0000B2400200B2400200B2400200B240020B8
:101CF0000B2400200B240020ED2000200B240020CA
:101D00000B2400200B2400200B2400200B24002097
:101D10000B2400200B240020272100200B2400206E
:101D20000B2400200B2400200B2400200B24002077
:101D30000B2400200B240020C92100200B240020AC
:101D40000B2400200B2400200B2400200B24002057
:101D50000B2400200B240020BF2100200B24002096
:101D60000B2400200B2400200B2400200B24002037
:101D70000B2400200B240020C92100200B2400206C
:101D80000B2400200B2400200B2400200B24002017
:101D90000B2400200B240020BF2100200B24002056
:101DA0000B2400200B2400200B2400200B240020F7
:101DB0000B2400200B2400200B2200200B240020E9
:101DC0000B2400200B2400200B2400200B240020D7
:101DD0000B2400200B2400208B2100200B2400204A
:101DE0000B2400200B2400200B2400200B240020B7
:101DF0000B2400200B2400200B2200200B240020A9
:101E00000B2400200B2400200B2400200B24002096
:101E10000B2400200B2400208B2100200B24002009
:101E20000B2400200B2400200B2400200B24002076
:101E30000B2400200B240020672200200B2400200C
:101E40000B2400200B2400200B2400200B24002056
:101E50000B2400200B2400203F2300200B24002013
:101E60000B2400200B2400200B2400200B24002036
:101E70000B2400200B2400203F2300200B240020F3
:101E80000B2400200B2400200B2400200B24002016
:101E90000B2400200B2400203F2300200B240020D3
:101EA0000B2400200B2400200B2400200B240020F6
:101EB0000B2400200B240020D12300200B24002021
:101EC0000B2400200B2400200B2400200B240020D6
:101ED0000B2400200B240020D12300200B24002001
:101EE0000B2400200B2400200B2400200B240020B6
:101EF0000B2400200B2400200B2400200B240020A6
:101F00000B2400200B2400200B2400200B24002095
:101F10000B2400200B240020112300207B689B69E8
:101F20004FF000025A617B685B697A685268D2B2EE
:101F30001A727B689B697A68D26AC3F800217B6851
:101F4000DB6A002B04D17B684FF000029A6207E045
:101F50007B68DB6A012B03D17B684FF000029A6338
:101F60007B6893F87130002B04D07B684FF000023F
:101F700083F871207B681A7A7B6893F872309A42F2
:101F800000F067827B6893F872207B681A7269E2BE
:101F90007B689B694FF001025A6163E27B689B6931
:101FA0004FF001021A617B684FF0020283F83C2077
:101FB0007B684FF000021A727868FFF7D5FD51E296
:101FC0007B689A6A7B685B6A9A420DD27B685A6921
:101FD0007B68196A7B689B6A19440978117203F15E
:101FE00001027B689A623DE27B681B7A032B09D170
:101FF0007B684FF00102DA627B689B694FF0010257
:102000005A612FE27B684FF000021A727B681B7CDA
:1020100003F001037B737B687A7B83F870207B7B02
:10202000002B08D17B689B694FF001021A61786828
:10203000FFF79AFD08E07B685B8A1BB21846FFF742
:1020400067FB4FF00003BB737B684FF0000283F81F
:102050003C2007E27B689B694FF001021A617B68B4
:102060004FF0020283F83C207B684FF000021A72A6
:102070007868FFF779FDF5E17B685B6B012B05D98B
:102080007B689B694FF001029A60EBE17B685B6BB8
:10209000012B05D17B689B694FF000029A60E1E15A
:1020A0007B689B694FF001029A607B689B694FF0E7
:1020B00001021A617B684FF0000283F83C207B68C4
:1020C0004FF000021A72CDE17B689B694FF001026C
:1020D0001A617B684FF0020283F83C207B684FF066
:1020E00000021A727868FFF73FFDBBE17B681A6B4C
:1020F0007B689B6B1A4479684969097AC9B2117087
:1021000003F101027B689A637B689A6B7B685B6B67
:1021100003F1FF339A42C0F09E817B689B694FF0C8
:1021200000029A609EE17B681A6B7B689B6B13448C
:102130007A685269127AD2B21A707B681B7C03F0FB
:1021400001037B737B687A7B83F870207B7B002B99
:1021500008D17B689B694FF001021A617868FFF72C
:1021600003FD08E07B685B8A1BB21846FFF7D0FAD4
:102170004FF00003BB737B684FF000021A727B685C
:102180004FF0000283F83C206CE17B689B694FF0C4
:1021900001029A607B684FF000021A727B684FF070
:1021A000000283F85C207B6893F87130002B00F00C
:1021B00054817B689B694FF001025A6152E17B6850
:1021C0004FF0010283F871207B684FF004021A720D
:1021D0007B684FF000029A657B684FF00002DA607E
:1021E0007B689B695B69002B09D07B689B694FF01A
:1021F00000025A617B684FF0010283F871207B680E
:102200004FF0010283F85C202CE17B681B6D002BF2
:102210001CD07B689A6D7B685B6D9A4216D27B6896
:102220005B691B7A3B737B681A6D7B689B6D1A44F4
:10223000397B117003F101027B689A657B68DB686A
:102240004FEA03223B7B1A447B68DA607B689A6D15
:102250007B685B6D9A42C0F002817B689B694FF09E
:1022600000029A60FEE07B681B7A042B35D17B6804
:102270009A6D7B681B6E9A4203D17B68DA687B6833
:10228000DA647B685B6E002B21D07B685B6E7A68BA
:10229000116D7A68926D92B2786898470346FB7325
:1022A000FB7B002B08D17868FFF75EFC7B689B699D
:1022B0004FF001029A6017E07B689B694FF00002C3
:1022C0009A607B684FF0000283F868200CE07B681E
:1022D0009B694FF001029A6006E07B684FF00002B4
:1022E000DA647868FFF740FC7B684FF0000283F8FF
:1022F0005C207B6893F87130002B04D07B689B696D
:102300004FF001025A617B684FF000021A72A9E097
:102310007B684FF000021A727B684FF00002DA64AB
:102320007B6893F85C30DBB2012B04D17B684FF003
:10233000020283F85C207868FFF716FC92E0FB7AD3
:10234000DBB2A82B1BD17B684FF005021A727B68A9
:102350004FF00002DA607B684FF0010283F85C20E6
:102360007B689B695B69002B09D07B689B694FF098
:1023700000025A617B684FF0010283F871207B688C
:10238000DA6C7B689B6C9A4205D37B685B694FF083
:10239000FF321A720CE07B685A697B68596C7B6863
:1023A000DB6C19440978117203F101027B68DA646D
:1023B0007B68DA6C7B689B6C9A4252D37B689B6922
:1023C0004FF000029A607B684FF00002DA6449E047
:1023D0007B684FF00002DA647B689B694FF0010272
:1023E0009A607B684FF0000283F85C207B6893F86A
:1023F0007130002B04D07B689B694FF001025A6159
:102400007B684FF000021A722CE07B689B694FF0EA
:1024100000025A617B684FF000021A727B684FF02D
:102420000002DA647B6893F83C30DBB2012B04D104
:102430007B684FF0020283F83C207B6893F85C30A5
:10244000DBB2012B0ED17B684FF0020283F85C20D7
:1024500008E000BF06E000BF04E000BF02E000BFEC
:1024600000E000BFBB7B002B04D07B689B694FF072
:102470000002DA607B685B691B79FB7207F1100769
:10248000BD4680BD80B582B000AF00F02DF9034697
:102490007B604FF0010000F037F97B68184607F1C8
:1024A0000807BD4680BD00BF80B582B000AF786030
:1024B000786800F029F907F10807BD4680BD00BF24
:1024C000684620F007018D4689B500AF44F2E04030
:1024D000C2F20000FFF75CFB4FF00E00FFF736F989
:1024E000BD46BDE889408546704700BF684620F07C
:1024F00007018D4689B500AF44F25450C2F2000086
:10250000FFF746FB4FF01100FFF720F9BD46BDE88D
:1025100089408546704700BF80B483B000AF034652
:10252000FB804EF20013CEF20003B7F906204FEA0B
:102530005212F98801F01F014FF0010000FA01F179
:1025400043F8221007F10C07BD4680BC704700BF5E
:1025500080B483B000AF0346FB804EF20013CEF28E
:102560000003B7F906204FEA5212F98801F01F0163
:102570004FF0010000FA01F102F1600243F822106D
:1025800007F10C07BD4680BC704700BF80B582B024
:1025900000AF42F20003CEF2040342F20002CEF298
:1025A0000402126B42F480421A634FF000037B6016
:1025B0000EE07A6844F23C13C2F2000333F81230A2
:1025C0001BB21846FFF7C4FF7B6803F101037B6071
:1025D0007B681F2BEDD942F20003CEF2040342F2D6
:1025E0000002CEF20402126B22F480421A6307F159
:1025F0000807BD4680BD00BF80B485B000AF03466C
:102600003960FB71FB79FB60FB681F2B00D900BEB2
:10261000FB681F2B08D8FA6844F2BC03C2F200031F
:1026200053F822303A681A6007F11407BD4680BC9F
:10263000704700BF80B584B000AF0346FB71FB79E3
:10264000FB60FB681F2B00D900BEFB681F2B1ED848
:10265000FA6844F2BC03C2F2000353F822301B684C
:10266000BB60FA6844F2BC03C2F2000353F82230A4
:10267000BA6842F008021A60FA6844F23C13C2F2E7
:10268000000333F812301BB21846FFF745FF07F17D
:102690001007BD4680BD00BF80B584B000AF0346C3
:1026A000FB71FB79FB60FB681F2B00D900BEFB6848
:1026B0001F2B15D843F20003C4F20103FA684FF050
:1026C000010101FA02F2C3F88020FA6844F23C13D7
:1026D000C2F2000333F812301BB21846FFF738FF7E
:1026E00007F11007BD4680BD80B483B000AF4FF046
:1026F00000037B60EFF310837B607B68184607F173
:102700000C07BD4680BC704780B483B000AF7860D2
:102710007B6883F3108807F10C07BD4680BC7047C7
:1027200080B400AFBD4680BC704700BF81F000415F
:1027300002E000BF83F0004330B54FEA41044FEAA6
:10274000430594EA050F08BF90EA020F1FBF54EA41
:10275000000C55EA020C7FEA645C7FEA655C00F0DD
:10276000E2804FEA5454D4EB5555B8BF6D420CDDAE
:102770002C4480EA020281EA030382EA000083EA31
:10278000010180EA020281EA0303362D88BF30BDD1
:1027900011F0004F4FEA01314FF4801C4CEA113127
:1027A00002D0404261EB410113F0004F4FEA033386
:1027B0004CEA133302D0524263EB430394EA050F11
:1027C00000F0A780A4F10104D5F1200E0DDB02FA80
:1027D0000EFC22FA05F2801841F1000103FA0EF214
:1027E000801843FA05F359410EE0A5F120050EF1DA
:1027F000200E012A03FA0EFC28BF4CF0020C43FA0B
:1028000005F3C01851EBE37101F0004507D54FF017
:10281000000EDCF1000C7EEB00006EEB0101B1F567
:10282000801F1BD3B1F5001F0CD349085FEA3000AD
:102830004FEA3C0C04F101044FEA445212F5800FB8
:1028400080F09A80BCF1004F08BF5FEA500C50F155
:10285000000041EB045141EA050130BD5FEA4C0C38
:10286000404141EB010111F4801FA4F10104E9D1C1
:1028700091F0000F04BF01460020B1FA81F308BFB8
:102880002033A3F10B03B3F120020CDA0C3208DD84
:1028900002F1140CC2F10C0201FA0CF021FA02F15F
:1028A0000CE002F11402D8BFC2F1200C01FA02F1CF
:1028B00020FA0CFCDCBF41EA0C019040E41AA2BFF4
:1028C00001EB0451294330BD6FEA04041F3C1CDABC
:1028D0000C340EDC04F11404C4F1200220FA04F0DC
:1028E00001FA02F340EA030021FA04F345EA030186
:1028F00030BDC4F10C04C4F1200220FA02F001FA48
:1029000004F340EA0300294630BD21FA04F02946C9
:1029100030BD94F0000F83F4801306BF81F4801162
:102920000134013D4EE77FEA645C18BF7FEA655CD5
:1029300029D094EA050F08BF90EA020F05D054EAA7
:10294000000C04BF1946104630BD91EA030F1EBFAC
:102950000021002030BD5FEA545C05D140004941B0
:1029600028BF41F0004130BD14F580043CBF01F5A3
:10297000801130BD01F0004545F0FE4141F4700189
:102980004FF0000030BD7FEA645C1ABF1946104664
:102990007FEA655C1CBF0B46024650EA013406BF65
:1029A00052EA033591EA030F41F4002130BD00BF24
:1029B00090F0000F04BF0021704730B54FF48064E1
:1029C00004F132044FF000054FF0000150E700BF62
:1029D00090F0000F04BF0021704730B54FF48064C1
:1029E00004F1320410F0004548BF40424FF00001AE
:1029F0003EE700BF42004FEAE2014FEA31014FEAF1
:102A000002701FBF12F07F4393F07F4F81F060513F
:102A1000704792F0000F14BF93F07F4F704730B5AE
:102A20004FF4607401F0004521F0004120E700BF41
:102A300050EA010208BF704730B54FF000050AE0C8
:102A400050EA010208BF704730B511F0004502D5C9
:102A5000404261EB41014FF4806404F132045FEACB
:102A6000915C3FF4DCAE4FF003025FEADC0C18BF70
:102A700003325FEADC0C18BF033202EBDC02C2F166
:102A8000200300FA03FC20FA02F001FA03FE40EAF8
:102A90000E0021FA02F11444C1E600BF70B54FF0F8
:102AA000FF0C4CF4E06C1CEA11541DBF1CEA1355DA
:102AB00094EA0C0F95EA0C0F00F0DEF82C4481EA42
:102AC000030621EA4C5123EA4C5350EA013518BF62
:102AD00052EA033541F4801143F4801338D0A0FB4F
:102AE00002CE4FF00005E1FB02E506F00042E0FBFC
:102AF00003E54FF00006E1FB03569CF0000F18BF02
:102B00004EF0010EA4F1FF04B6F5007F64F54074A9
:102B100004D25FEA4E0E6D4146EB060642EAC6213C
:102B200041EA55514FEAC52040EA5E504FEACE2EA9
:102B3000B4F1FD0C88BFBCF5E06F1ED8BEF1004FAC
:102B400008BF5FEA500E50F1000041EB045170BD28
:102B500006F0004646EA010140EA020081EA03016C
:102B6000B4EB5C04C2BFD4EB0C0541EA045170BD68
:102B700041F480114FF0000E013C00F3AB8014F1E2
:102B8000360FDEBF002001F0004170BDC4F100042B
:102B9000203C35DA0C341BDC04F11404C4F12005AC
:102BA00000FA05F320FA04F001FA05F240EA020007
:102BB00001F0004221F0004110EBD37021FA04F63D
:102BC00042EB06015EEA430E08BF20EAD37070BDF7
:102BD000C4F10C04C4F1200500FA04F320FA05F056
:102BE00001FA04F240EA020001F0004110EBD37058
:102BF00041F100015EEA430E08BF20EAD37070BDC8
:102C0000C4F1200500FA05F24EEA020E20FA04F3A0
:102C100001FA05F243EA020321FA04F001F000414F
:102C200021FA04F220EA020000EBD3705EEA430EC0
:102C300008BF20EAD37070BD94F0000F0FD101F0EF
:102C40000046400041EB010111F4801F08BF013C28
:102C5000F7D041EA060195F0000F18BF704703F066
:102C60000046520043EB030313F4801F08BF013DED
:102C7000F7D043EA0603704794EA0C0F0CEA1355A9
:102C800018BF95EA0C0F0CD050EA410618BF52EA63
:102C90004306D1D181EA030101F000414FF0000069
:102CA00070BD50EA410606BF1046194652EA430677
:102CB00019D094EA0C0F02D150EA013613D195EAEB
:102CC0000C0F05D152EA03361CBF104619460AD133
:102CD00081EA030101F0004141F0FE4141F470013D
:102CE0004FF0000070BD41F0FE4141F4780170BD2D
:102CF00070B54FF0FF0C4CF4E06C1CEA11541DBF92
:102D00001CEA135594EA0C0F95EA0C0F00F0A7F893
:102D1000A4EB050481EA030E52EA03354FEA0131C0
:102D200000F088804FEA03334FF0805545EA1313D3
:102D300043EA12634FEA022245EA111545EA10659B
:102D40004FEA00260EF000419D4208BF964244F132
:102D5000FD0404F5407402D25B084FEA3202B61A51
:102D600065EB03055B084FEA32024FF480104FF425
:102D7000002CB6EB020E75EB030E22BFB61A754699
:102D800040EA0C005B084FEA3202B6EB020E75EB2C
:102D9000030E22BFB61A754640EA5C005B084FEA94
:102DA0003202B6EB020E75EB030E22BFB61A754661
:102DB00040EA9C005B084FEA3202B6EB020E75EB6C
:102DC000030E22BFB61A754640EADC0055EA060E2D
:102DD00018D04FEA051545EA16754FEA06164FEA70
:102DE000C30343EA52734FEAC2025FEA1C1CC0D11C
:102DF00011F4801F0BD141EA00014FF000004FF0A9
:102E0000004CB6E711F4801F04BF01430020B4F169
:102E1000FD0C88BFBCF5E06F3FF6AFAEB5EB030C21
:102E200004BFB6EB020C5FEA500C50F1000041EB1E
:102E3000045170BD0EF0004E4EEA113114EB5C04EB
:102E4000C2BFD4EB0C0541EA045170BD41F48011BE
:102E50004FF0000E013C90E645EA060E8DE60CEAC6
:102E6000135594EA0C0F08BF95EA0C0F3FF43BAFE3
:102E700094EA0C0F0AD150EA01347FF434AF95EA9A
:102E80000C0F7FF425AF104619462CE795EA0C0F7E
:102E900006D152EA03353FF4FDAE1046194622E74B
:102EA00050EA410618BF52EA43067FF4C5AE50EA25
:102EB00041047FF40DAF52EA43057FF4EBAE12E715
:102EC0004FF0FF3C06E000BF4FF0010C02E000BFF6
:102ED0004FF0010C4DF804CD4FEA410C7FEA6C5CD9
:102EE0004FEA430C18BF7FEA6C5C1BD001B050EA7C
:102EF000410C0CBF52EA430C91EA030F02BF90EA67
:102F0000020F0020704710F1000F91EA030F58BF25
:102F1000994208BF90422CBFD8176FEAE37040F087
:102F2000010070474FEA410C7FEA6C5C02D150EA25
:102F3000013C07D14FEA430C7FEA6C5CD6D152EAE0
:102F4000033CD3D05DF8040B704700BF84461046A5
:102F500062468C461946634600E000BF01B5FFF7A4
:102F6000B7FF002848BF10F1000F01BD4DF808ED74
:102F7000FFF7F4FF0CBF012000205DF808FB00BF45
:102F80004DF808EDFFF7EAFF34BF012000205DF89F
:102F900008FB00BF4DF808EDFFF7E0FF94BF0120EC
:102FA00000205DF808FB00BF4DF808EDFFF7CEFFED
:102FB00094BF012000205DF808FB00BF4DF808ED2C
:102FC000FFF7C4FF34BF012000205DF808FB00BFFD
:102FD0004FEA410212F5001215D211D56FF4787341
:102FE000B3EB625212D94FEAC12343F0004343EAE4
:102FF000505311F0004F23FA02F018BF40427047BF
:103000004FF00000704750EA013005D111F0004048
:1030100008BF6FF0004070474FF00000704700BFDE
:103020004A0011D212F5001211D20DD56FF4787347
:10303000B3EB62520ED44FEAC12343F0004343EA9C
:10304000505323FA02F070474FF00000704750EAE7
:10305000013002D14FF0FF3070474FF00000704751
:1030600080F0004002E000BF81F0004142001FBF3D
:103070005FEA410392EA030F7FEA226C7FEA236C46
:103080006AD04FEA1262D2EB1363C1BFD21841403B
:1030900048404140B8BF5B42192B88BF704710F0D1
:1030A000004F40F4000020F07F4018BF404211F074
:1030B000004F41F4000121F07F4118BF494292EADC
:1030C000030F3FD0A2F1010241FA03FC10EB0C0008
:1030D000C3F1200301FA03F100F0004302D5494295
:1030E00060EB4000B0F5000F13D3B0F1807F06D342
:1030F00040084FEA310102F10102FE2A51D2B1F13A
:10310000004F40EBC25008BF20F0010040EA03002E
:103110007047490040EB000010F4000FA2F10102DB
:10312000EDD1B0FA80FCACF1080CB2EB0C0200FA65
:103130000CF0AABF00EBC25052421843BCBFD040B3
:103140001843704792F0000F81F4000106BF80F42D
:1031500000000132013BB5E74FEA41037FEA226CF0
:1031600018BF7FEA236C21D092EA030F04D092F0BB
:10317000000F08BF0846704790EA010F1CBF0020EF
:10318000704712F07F4F04D1400028BF40F000404C
:10319000704712F100723CBF00F50000704700F06C
:1031A000004343F0FE4040F4000070477FEA226293
:1031B00016BF08467FEA23630146420206BF5FEA64
:1031C000412390EA010F40F4800070474FF0000364
:1031D00004E000BF10F0004348BF40425FEA000C2B
:1031E00008BF704743F0964301464FF000001CE0D3
:1031F00050EA010208BF70474FF000030AE000BF29
:1032000050EA010208BF704711F0004302D5404266
:1032100061EB41015FEA010C02BF844601460020D8
:1032200043F0B64308BFA3F18053A3F50003BCFAF3
:103230008CF2083AA3EBC25310DB01FA02FC6344A0
:1032400000FA02FCC2F12002BCF1004F20FA02F2A7
:1032500043EB020008BF20F00100704702F120029A
:1032600001FA02FCC2F1200250EA4C0021FA02F2FB
:1032700043EB020008BF20EADC7070474FF0FF0C00
:103280001CEAD0521EBF1CEAD15392EA0C0F93EAFB
:103290000C0F6FD01A4480EA010C400218BF5FEA9D
:1032A00041211ED04FF0006343EA501043EA511110
:1032B000A0FB01310CF00040B1F5000F3EBF49000A
:1032C00041EAD3715B0040EA010062F17F02FD2A0E
:1032D0001DD8B3F1004F40EBC25008BF20F00100F1
:1032E000704790F0000F0CF0004C08BF49024CEA08
:1032F000502040EA51207F3AC2BFD2F1FF0340EA9A
:10330000C250704740F400004FF00003013A5DDC0A
:1033100012F1190FDCBF00F000407047C2F100024B
:10332000410021FA02F1C2F1200200FA02FC5FEA38
:10333000310040F1000053EA4C0308BF20EADC7082
:10334000704792F0000F00F0004C02BF400010F4F4
:10335000000F013AF9D040EA0C0093F0000F01F0A1
:10336000004C02BF490011F4000F013BF9D041EAC3
:103370000C018FE70CEAD15392EA0C0F18BF93EAC5
:103380000C0F0AD030F0004C18BF31F0004CD8D1EF
:1033900080EA010000F00040704790F0000F17BF76
:1033A00090F0004F084691F0000F91F0004F14D0BC
:1033B00092EA0C0F01D142020FD193EA0C0F03D114
:1033C0004B0218BF084608D180EA010000F0004017
:1033D00040F0FE4040F40000704740F0FE4040F4F2
:1033E000400070474FF0FF0C1CEAD0521EBF1CEA91
:1033F000D15392EA0C0F93EA0C0F69D0A2EB0302AF
:1034000080EA010C49024FEA402037D04FF0805348
:1034100043EA111143EA10130CF000408B4238BF0D
:103420005B0042F17D024FF4000C8B4224BF5B1A1B
:1034300040EA0C00B3EB510F24BFA3EB510340EA69
:103440005C00B3EB910F24BFA3EB910340EA9C0017
:10345000B3EBD10F24BFA3EBD10340EADC001B0187
:1034600018BF5FEA1C1CE0D1FD2A3FF650AF8B422B
:1034700040EBC25008BF20F0010070470CF0004C38
:103480004CEA50207F32C2BFD2F1FF0340EAC25063
:10349000704740F400004FF00003013A37E792F024
:1034A000000F00F0004C02BF400010F4000F013A82
:1034B000F9D040EA0C0093F0000F01F0004C02BF7D
:1034C000490011F4000F013BF9D041EA0C0195E7E6
:1034D0000CEAD15392EA0C0F08D142027FF47DAF7F
:1034E00093EA0C0F7FF470AF084676E793EA0C0F6F
:1034F00004D14B023FF44CAF08466EE730F0004C6D
:1035000018BF31F0004CCAD130F000427FF45CAFFC
:1035100031F000437FF43CAF5FE700BF4FF0FF3C6A
:1035200006E000BF4FF0010C02E000BF4FF0010CBD
:103530004DF804CD4FEA40024FEA41037FEA226C86
:1035400018BF7FEA236C11D001B052EA530C18BFA8
:1035500090EA010F58BFB2EB030088BFC81738BF0D
:103560006FEAE17018BF40F0010070477FEA226CFB
:1035700002D15FEA402C05D17FEA236CE4D15FEAF7
:10358000412CE1D05DF8040B704700BF844608462B
:103590006146FFE70FB5FFF7C9FF002848BF10F1EC
:1035A000000F0FBD4DF808EDFFF7F4FF0CBF012031
:1035B00000205DF808FB00BF4DF808EDFFF7EAFFBB
:1035C00034BF012000205DF808FB00BF4DF808ED76
:1035D000FFF7E0FF94BF012000205DF808FB00BF6B
:1035E0004DF808EDFFF7D2FF94BF012000205DF8F1
:1035F00008FB00BF4DF808EDFFF7C8FF34BF0120FE
:1036000000205DF808FB00BF44F25023C2F2000323
:103610001868704770B544F2382644F23825C2F273
:103620000006C2F20005761BB61006D0002455F83D
:10363000243001349847A642F9D844F2382544F2A0
:103640003C26C2F20005C2F20006761B00F0E8FD3F
:10365000B61006D0002455F8243001349847A6420D
:10366000F9D870BD032AC9B230B407D822B10023FB
:10367000C15401339342FBD130BC704700EB020CC4
:10368000034601E003F8011C03F003041A4601336A
:10369000002CF7D14FF00133C2EB0C0403FB01F314
:1036A0001FE042F8403C42F83C3C42F8383C42F8CB
:1036B000343C42F8303C42F82C3C42F8283C42F87A
:1036C000243C42F8203C42F81C3C42F8183C42F8AA
:1036D000143C42F8103C42F80C3C42F8083C42F8DA
:1036E000043C154640323F2CA4F14004D9DC2A4664
:1036F000C5EB0C0407E042F8103C42F80C3C42F8E1
:10370000083C42F8043C154610320F2CA4F110047A
:10371000F1DC2A46C5EB0C0501E042F8043C1446F6
:103720000432032DA5F10405F7DC01E004F8011BC8
:103730006445FBD3A0E700BF02464042104321F09E
:10374000004141EAD070C0F1FE4000F57000C00FAA
:10375000704700BF000000002DE9D0438AB0064644
:103760000F4600F0F9F844F24434C2F2000494F930
:103770000030B3F1FF3F8046894638D030463946A5
:1037800000F08AFC002832D0304639462EA3D3E917
:103790000023FFF713FC00282ED1304639462CA316
:1037A000D3E90023FFF7ECFB08B394F9002044F2BF
:1037B000E013C2F2000300200021019304230093D0
:1037C0000023022ACDE902670893CDE90601CDE97D
:1037D000046732D0684600F067FC00282DD0089BB3
:1037E0001BB1FFF711FF089B0360DDE90689404626
:1037F00049460AB0BDE8D083227844F2E013C2F211
:103800000003CDE9026701930323CDE90467009328
:103810000023089342B94FF6FF734FF06042C4F2A1
:10382000EF73CDE90623D5E70020022A40F200011C
:10383000C7F6F071CDE90601CCD1FFF7E5FE2223F2
:103840000360CCE7AFF30080EF39FAFE422E8640EA
:1038500051302DD5104987C02DE9F0438BB0064675
:103860000F4600F005FA44F24434C2F2000494F921
:103870000030B3F1FF3F8046894638D030463946A4
:10388000FFF75AFF0546002831D13046394600225D
:103890000023FFF793FB002829D1247844F2E41396
:1038A000C2F2000308950193CDE90267CDE90467F0
:1038B000002C21D040F200030022CFF6F0733046F6
:1038C000CDE90623394600220023FFF74FFB0028ED
:1038D00022D0022300939C4234D0684600F0E4FBDF
:1038E00000282FD0089B002B27D1DDE90689404610
:1038F00049460BB0BDE8F0834FF6FF734FF06042CE
:10390000CCF2EF733046CDE906233946002200237E
:10391000FFF72CFB0028DCD10123022C009316D0EA
:10392000684600F0C1FB90B144F2E810C2F200001A
:1039300000F0BCFBCDE90601D4E7FFF765FE089B6C
:103940000360D2E7FFF760FE22230360CAE7FFF7B8
:103950005BFE21230360E7E742F6416321F000426A
:10396000C4F286039A422DE9F04F044683B00D4617
:10397000804689464FEAD17716D94FF6FF73C7F6CE
:10398000EF739A4238D921F07F4C02462CF4700C28
:103990000B465CEA000C2AD1002F40F0388120460B
:1039A000294603B0BDE8F08F42F64263C3F6D673F2
:1039B0009A4200F2E2804FF6FF73C3F62F639A42F9
:1039C00000F2F48094A3D3E90023FEF7B5FE40F2A1
:1039D00000030022C3F6F073FFF7F0FA002853D07B
:1039E00040F20003204629460022C3F6F073FEF79A
:1039F000A3FE04460D46D2E789A3D3E90023FFF7CF
:103A0000DDFA002840F0D4802046294686A3D3E979
:103A10000023FFF7B5FA002840F0F98084A3D3E92A
:103A2000002320462946FFF739F844F2F013C2F28A
:103A3000000303EBC707D7E90823FEF77DFEFFF776
:103A4000C7FA0646FEF7C4FF7BA3D3E900238046EE
:103A50008946FFF723F802460B4620462946FEF723
:103A600069FE77A3D3E90023CDE90001404649462A
:103A7000FFF714F882468B46DDE9000152465B46AB
:103A8000FEF758FE04460D4622462B4620462946A0
:103A9000FFF704F86CA3D3E9002380468946FEF7BC
:103AA000FDFF6BA3D3E90023FEF744FE42464B46DD
:103AB000FEF7F4FF68A3D3E90023FEF73DFE42467C
:103AC0004B46FEF7EBFF66A3D3E90023FEF732FE79
:103AD00042464B46FEF7E2FF63A3D3E90023FEF71D
:103AE0002BFE42464B46FEF7D9FF02460B462046C8
:103AF0002946FEF71FFE80468946002E62D02046EA
:103B0000294642464B46FEF7C9FF42464B4604460D
:103B10000D4600204FF08041FEF70CFE02460B469A
:103B200020462946FFF7E4F802460B465046594620
:103B3000FEF700FEDDE90023FEF7FCFD0B4640F238
:103B400000010246C3F6F0710020FEF7F3FD6FF4AA
:103B50007F739E42A4BF044601EB0655BFF61FAF1C
:103B600006F57A7600224FF0B87301EB0655294628
:103B7000FEF794FF04460D4611E74AF2B123C3F65F
:103B8000F0739A423FF64AAF44F2F0147E42C2F21A
:103B90000004F61B04EBC7040136D4E90023FEF74A
:103BA000C9FDD4E904ABCDE9000165E700266BE768
:103BB00019A1D1E9000102460B46FEF76FFF04464A
:103BC0000D46ECE62046294642464B46FEF766FF88
:103BD00000224FF0804306460F4640464946FEF716
:103BE000A9FD02460B4630463946FFF781F82246CA
:103BF0002B46FEF79FFD0B4640F200010246C3F63E
:103C0000F0710020FEF796FD04460D46C7E600243D
:103C10000025C4E6AFF300809C7500883CE4377E45
:103C2000EF39FAFE422E864051302DD5104987C01B
:103C3000FE822B654715F73F0000E0FE422EE63F6F
:103C4000763C7935EF39EA3DD0A4BE726937663EDD
:103C5000F16BD2C541BDBB3E2CDE25AF6A56113F8C
:103C600093BDBE166CC1663F3E5555555555C53F73
:103C7000B1F5801F0B462DE9F04F804687B089468D
:103C800004460D463EDB4FF6FF720026C7F6EF7284
:103C9000934251DC23F07F4445F6647C24F47004A5
:103CA000C0F2090CA44440F20002A6F57E760CF4A2
:103CB000801C073EC3F6F0728CEA020206EB235624
:103CC00040F20003404642EA0401C3F6F0730022CA
:103CD00006EB1C56FEF72EFDA31C23F07F4323F4B6
:103CE0007003022B804689462FDC00220023FFF759
:103CF0003DF9002800F0CA80002E40F07C810020B1
:103D000000211FE021F00043034300F0B5800029AB
:103D1000C0F2468140F200030022C4F250336FF03B
:103D20003506FEF7BBFE4FF6FF72C7F6EF720B4685
:103D3000804693428946ADDD4046494642464B4661
:103D4000FEF7FAFC07B0BDE8F08F00224FF0804389
:103D5000FEF7F2FC4EF68635CFF6F9756519024688
:103D60000B4640464946FEF7C3FFCDE90201304607
:103D7000FEF72EFECDE90401DDE9020102460B4605
:103D8000FEF78CFE02460B46CDE90001FEF786FEEB
:103D9000ABA3D3E9002382468B46FEF77FFEAAA39E
:103DA000D3E90023FEF7C8FC52465B46FEF776FED9
:103DB000A7A3D3E90023FEF7BFFC52465B46FEF7FC
:103DC0006DFEA5A3D3E90023FEF7B6FCDDE90023D1
:103DD000FEF764FEA2A3D3E90023CDE9000150461B
:103DE0005946FEF75BFEA0A3D3E90023FEF7A4FC2F
:103DF00052465B46FEF752FE9DA3D3E90023FEF731
:103E00009BFC52465B46FEF749FE0B460246DDE947
:103E10000001FEF791FC4BF65103C0F206031B1B99
:103E200043EA0505002D82468B4656DD40F200032D
:103E30000022C3F6E07340464946FEF72FFE424695
:103E40004B46FEF72BFE04460D46002E75D152461A
:103E50005B46FEF771FCDDE90223FEF71FFE02461A
:103E60000B4620462946FEF765FC02460B464046B7
:103E70004946FEF75FFC65E740F2000100200022A2
:103E80000023CCF25031FEF733FF5BE742464B464E
:103E900040464946FEF702FE77A3D3E900230446D5
:103EA0000D4640464946FEF7F9FD40F20003002268
:103EB000C3F6E073FEF740FC02460B462046294657
:103EC000FEF7ECFD04460D46002E72D140464946F1
:103ED00022462B46FEF72EFC34E7002E00F0A5808C
:103EE00067A3D3E90023DDE90401FEF7D7FD5246BD
:103EF0005B4606460F4640464946FEF71BFCDDE999
:103F00000223FEF7CBFD60A3D3E9002304460D4650
:103F1000DDE90401FEF7C2FD02460B4620462946B4
:103F2000FEF70AFC42464B46FEF704FC02460B46EF
:103F300030463946FEF7FEFB04E751A3D3E90023E0
:103F4000DDE90401FEF7AAFD52465B46CDE900011A
:103F500020462946FEF7F0FBDDE90223FEF79EFD31
:103F60004BA3D3E9002306460F46DDE90401FEF723
:103F700095FD02460B4630463946FEF7DDFB02460C
:103F80000B4620462946FEF7D5FB42464B46FEF738
:103F9000D1FB02460B46DDE90001FEF7CBFBD1E683
:103FA00002460B46FEF7C6FB00220023FEF7A0FEEA
:103FB000C8E63046FEF70CFD31A3D3E900230646E0
:103FC0000F46FEF76BFD30A3D3E9002382468B46F4
:103FD00030463946FEF762FD22462B46FEF7ACFB23
:103FE00042464B46FEF7A6FB02460B465046594654
:103FF000FEF7A0FBA6E63046FEF7EAFC20A3D3E9D5
:10400000002306460F46FEF749FD21A3D3E900230E
:1040100004460D4630463946FEF740FD02460B4643
:1040200020462946FEF788FB8CE602460B464046B2
:104030004946FEF77FFBDDE90223FEF72FFD14E77B
:1040400044523EDF12F1C23FDE03CB966446C73FC7
:10405000599322942449D23F935555555555E53FE0
:104060009FC678D0099AC33FAF788E1DC571CC3FEB
:1040700004FA97999999D93F555555555555D5BF36
:104080000000E0FE422EE63F763C7935EF39EABD8E
:10409000763C7935EF39EA3D21F0004101F10040ED
:1040A00000F58010C00F70470020704740F20001FB
:1040B0000020C7F6F87170471A1B0000003001405D
:1040C00004300140083001400C3001401030014004
:1040D00014300140183001401C30014020300140B4
:1040E00024300140283001402C3001403030014064
:1040F00034300140383001403C3001404030014014
:1041000044300140483001404C30014050300140C3
:1041100054300140583001405C3001406030014073
:1041200064300140683001406C3001407030014023
:1041300074300140783001407C3001402000210083
:104140002200230024002500260027002800290043
:104150002A002B002C002D002E002F0030003100F3
:1041600032003300340035003600370038003900A3
:104170003A003B003C003D003E003F004300000091
:10418000000000000000000000000000000000002F
:10419000000000000000000000000000000000001F
:1041A000000000000000000000000000000000000F
:1041B00000000000000000000000000000000000FF
:1041C00000000000000000000000000000000000EF
:1041D00000000000000000000000000000000000DF
:1041E000657870006C6F6700000000000000000040
:1041F0000000E0FE422EE63F0000E0FE422EE6BF59
:10420000763C7935EF39EA3D763C7935EF39EABDD0
:10421000000000000000E03F000000000000E0BFE0
:10422000F8B500BFF8BC08BC9E467047F8B500BFA3
:10423000F8BC08BC9E46704785040020710400202D
:1042400000000000000005400001054001000000E2
:10425000544200200000000080410020A0410020C6
:10426000C04100200000000000000000000000002D
:10427000000000007C410020000000000000000061
:10428000000000000000000000000000000000002E
:10429000000000000000000000000000000000001E
:1042A000000000000000000000000000000000000E
:1042B00000000000000000000000000000000000FE
:1042C00000000000000000000000000000000000EE
:1042D00000000000000000000000000000000000DE
:1042E00000000000000000000000000000000000CE
:1042F00000000000000000000000000000000000BE
:1043000000000000000000000000000000000000AD
:10431000000000000000000000000000000000009D
:10432000000000000000000000000000000000008D
:10433000000000000000000000000000000000007D
:08434000000000000100000074
:04000005200002993C
:00000001FF
